{
  "_format": "hh-sol-artifact-1",
  "contractName": "ZaiStablecoin",
  "sourceName": "contracts/core/ZaiStablecoin.sol",
  "abi": [
    {
      "inputs": [
        {
          "internalType": "address",
          "name": "_layerZeroEndpoint",
          "type": "address"
        },
        {
          "internalType": "address",
          "name": "_delegate",
          "type": "address"
        }
      ],
      "stateMutability": "nonpayable",
      "type": "constructor"
    },
    {
      "inputs": [],
      "name": "AccessControlBadConfirmation",
      "type": "error"
    },
    {
      "inputs": [
        {
          "internalType": "address",
          "name": "account",
          "type": "address"
        },
        {
          "internalType": "bytes32",
          "name": "neededRole",
          "type": "bytes32"
        }
      ],
      "name": "AccessControlUnauthorizedAccount",
      "type": "error"
    },
    {
      "inputs": [
        {
          "internalType": "address",
          "name": "target",
          "type": "address"
        }
      ],
      "name": "AddressEmptyCode",
      "type": "error"
    },
    {
      "inputs": [
        {
          "internalType": "address",
          "name": "account",
          "type": "address"
        }
      ],
      "name": "AddressInsufficientBalance",
      "type": "error"
    },
    {
      "inputs": [],
      "name": "ECDSAInvalidSignature",
      "type": "error"
    },
    {
      "inputs": [
        {
          "internalType": "uint256",
          "name": "length",
          "type": "uint256"
        }
      ],
      "name": "ECDSAInvalidSignatureLength",
      "type": "error"
    },
    {
      "inputs": [
        {
          "internalType": "bytes32",
          "name": "s",
          "type": "bytes32"
        }
      ],
      "name": "ECDSAInvalidSignatureS",
      "type": "error"
    },
    {
      "inputs": [
        {
          "internalType": "address",
          "name": "spender",
          "type": "address"
        },
        {
          "internalType": "uint256",
          "name": "allowance",
          "type": "uint256"
        },
        {
          "internalType": "uint256",
          "name": "needed",
          "type": "uint256"
        }
      ],
      "name": "ERC20InsufficientAllowance",
      "type": "error"
    },
    {
      "inputs": [
        {
          "internalType": "address",
          "name": "sender",
          "type": "address"
        },
        {
          "internalType": "uint256",
          "name": "balance",
          "type": "uint256"
        },
        {
          "internalType": "uint256",
          "name": "needed",
          "type": "uint256"
        }
      ],
      "name": "ERC20InsufficientBalance",
      "type": "error"
    },
    {
      "inputs": [
        {
          "internalType": "address",
          "name": "approver",
          "type": "address"
        }
      ],
      "name": "ERC20InvalidApprover",
      "type": "error"
    },
    {
      "inputs": [
        {
          "internalType": "address",
          "name": "receiver",
          "type": "address"
        }
      ],
      "name": "ERC20InvalidReceiver",
      "type": "error"
    },
    {
      "inputs": [
        {
          "internalType": "address",
          "name": "sender",
          "type": "address"
        }
      ],
      "name": "ERC20InvalidSender",
      "type": "error"
    },
    {
      "inputs": [
        {
          "internalType": "address",
          "name": "spender",
          "type": "address"
        }
      ],
      "name": "ERC20InvalidSpender",
      "type": "error"
    },
    {
      "inputs": [
        {
          "internalType": "uint256",
          "name": "deadline",
          "type": "uint256"
        }
      ],
      "name": "ERC2612ExpiredSignature",
      "type": "error"
    },
    {
      "inputs": [
        {
          "internalType": "address",
          "name": "signer",
          "type": "address"
        },
        {
          "internalType": "address",
          "name": "owner",
          "type": "address"
        }
      ],
      "name": "ERC2612InvalidSigner",
      "type": "error"
    },
    {
      "inputs": [
        {
          "internalType": "uint256",
          "name": "maxLoan",
          "type": "uint256"
        }
      ],
      "name": "ERC3156ExceededMaxLoan",
      "type": "error"
    },
    {
      "inputs": [
        {
          "internalType": "address",
          "name": "receiver",
          "type": "address"
        }
      ],
      "name": "ERC3156InvalidReceiver",
      "type": "error"
    },
    {
      "inputs": [
        {
          "internalType": "address",
          "name": "token",
          "type": "address"
        }
      ],
      "name": "ERC3156UnsupportedToken",
      "type": "error"
    },
    {
      "inputs": [],
      "name": "FailedInnerCall",
      "type": "error"
    },
    {
      "inputs": [
        {
          "internalType": "address",
          "name": "account",
          "type": "address"
        },
        {
          "internalType": "uint256",
          "name": "currentNonce",
          "type": "uint256"
        }
      ],
      "name": "InvalidAccountNonce",
      "type": "error"
    },
    {
      "inputs": [],
      "name": "InvalidDelegate",
      "type": "error"
    },
    {
      "inputs": [],
      "name": "InvalidEndpointCall",
      "type": "error"
    },
    {
      "inputs": [],
      "name": "InvalidLocalDecimals",
      "type": "error"
    },
    {
      "inputs": [
        {
          "internalType": "bytes",
          "name": "options",
          "type": "bytes"
        }
      ],
      "name": "InvalidOptions",
      "type": "error"
    },
    {
      "inputs": [],
      "name": "InvalidShortString",
      "type": "error"
    },
    {
      "inputs": [],
      "name": "LzTokenUnavailable",
      "type": "error"
    },
    {
      "inputs": [
        {
          "internalType": "uint32",
          "name": "eid",
          "type": "uint32"
        }
      ],
      "name": "NoPeer",
      "type": "error"
    },
    {
      "inputs": [
        {
          "internalType": "uint256",
          "name": "msgValue",
          "type": "uint256"
        }
      ],
      "name": "NotEnoughNative",
      "type": "error"
    },
    {
      "inputs": [
        {
          "internalType": "address",
          "name": "addr",
          "type": "address"
        }
      ],
      "name": "OnlyEndpoint",
      "type": "error"
    },
    {
      "inputs": [
        {
          "internalType": "uint32",
          "name": "eid",
          "type": "uint32"
        },
        {
          "internalType": "bytes32",
          "name": "sender",
          "type": "bytes32"
        }
      ],
      "name": "OnlyPeer",
      "type": "error"
    },
    {
      "inputs": [],
      "name": "OnlySelf",
      "type": "error"
    },
    {
      "inputs": [
        {
          "internalType": "address",
          "name": "owner",
          "type": "address"
        }
      ],
      "name": "OwnableInvalidOwner",
      "type": "error"
    },
    {
      "inputs": [
        {
          "internalType": "address",
          "name": "account",
          "type": "address"
        }
      ],
      "name": "OwnableUnauthorizedAccount",
      "type": "error"
    },
    {
      "inputs": [
        {
          "internalType": "address",
          "name": "token",
          "type": "address"
        }
      ],
      "name": "SafeERC20FailedOperation",
      "type": "error"
    },
    {
      "inputs": [
        {
          "internalType": "bytes",
          "name": "result",
          "type": "bytes"
        }
      ],
      "name": "SimulationResult",
      "type": "error"
    },
    {
      "inputs": [
        {
          "internalType": "uint256",
          "name": "amountLD",
          "type": "uint256"
        },
        {
          "internalType": "uint256",
          "name": "minAmountLD",
          "type": "uint256"
        }
      ],
      "name": "SlippageExceeded",
      "type": "error"
    },
    {
      "inputs": [
        {
          "internalType": "string",
          "name": "str",
          "type": "string"
        }
      ],
      "name": "StringTooLong",
      "type": "error"
    },
    {
      "anonymous": false,
      "inputs": [
        {
          "indexed": true,
          "internalType": "address",
          "name": "owner",
          "type": "address"
        },
        {
          "indexed": true,
          "internalType": "address",
          "name": "spender",
          "type": "address"
        },
        {
          "indexed": false,
          "internalType": "uint256",
          "name": "value",
          "type": "uint256"
        }
      ],
      "name": "Approval",
      "type": "event"
    },
    {
      "anonymous": false,
      "inputs": [],
      "name": "EIP712DomainChanged",
      "type": "event"
    },
    {
      "anonymous": false,
      "inputs": [
        {
          "components": [
            {
              "internalType": "uint32",
              "name": "eid",
              "type": "uint32"
            },
            {
              "internalType": "uint16",
              "name": "msgType",
              "type": "uint16"
            },
            {
              "internalType": "bytes",
              "name": "options",
              "type": "bytes"
            }
          ],
          "indexed": false,
          "internalType": "struct EnforcedOptionParam[]",
          "name": "_enforcedOptions",
          "type": "tuple[]"
        }
      ],
      "name": "EnforcedOptionSet",
      "type": "event"
    },
    {
      "anonymous": false,
      "inputs": [
        {
          "indexed": false,
          "internalType": "address",
          "name": "inspector",
          "type": "address"
        }
      ],
      "name": "MsgInspectorSet",
      "type": "event"
    },
    {
      "anonymous": false,
      "inputs": [
        {
          "indexed": true,
          "internalType": "bytes32",
          "name": "guid",
          "type": "bytes32"
        },
        {
          "indexed": false,
          "internalType": "uint32",
          "name": "srcEid",
          "type": "uint32"
        },
        {
          "indexed": true,
          "internalType": "address",
          "name": "toAddress",
          "type": "address"
        },
        {
          "indexed": false,
          "internalType": "uint256",
          "name": "amountReceivedLD",
          "type": "uint256"
        }
      ],
      "name": "OFTReceived",
      "type": "event"
    },
    {
      "anonymous": false,
      "inputs": [
        {
          "indexed": true,
          "internalType": "bytes32",
          "name": "guid",
          "type": "bytes32"
        },
        {
          "indexed": false,
          "internalType": "uint32",
          "name": "dstEid",
          "type": "uint32"
        },
        {
          "indexed": true,
          "internalType": "address",
          "name": "fromAddress",
          "type": "address"
        },
        {
          "indexed": false,
          "internalType": "uint256",
          "name": "amountSentLD",
          "type": "uint256"
        },
        {
          "indexed": false,
          "internalType": "uint256",
          "name": "amountReceivedLD",
          "type": "uint256"
        }
      ],
      "name": "OFTSent",
      "type": "event"
    },
    {
      "anonymous": false,
      "inputs": [
        {
          "indexed": true,
          "internalType": "address",
          "name": "previousOwner",
          "type": "address"
        },
        {
          "indexed": true,
          "internalType": "address",
          "name": "newOwner",
          "type": "address"
        }
      ],
      "name": "OwnershipTransferred",
      "type": "event"
    },
    {
      "anonymous": false,
      "inputs": [
        {
          "indexed": false,
          "internalType": "uint32",
          "name": "eid",
          "type": "uint32"
        },
        {
          "indexed": false,
          "internalType": "bytes32",
          "name": "peer",
          "type": "bytes32"
        }
      ],
      "name": "PeerSet",
      "type": "event"
    },
    {
      "anonymous": false,
      "inputs": [
        {
          "indexed": false,
          "internalType": "address",
          "name": "preCrimeAddress",
          "type": "address"
        }
      ],
      "name": "PreCrimeSet",
      "type": "event"
    },
    {
      "anonymous": false,
      "inputs": [
        {
          "indexed": true,
          "internalType": "bytes32",
          "name": "role",
          "type": "bytes32"
        },
        {
          "indexed": true,
          "internalType": "bytes32",
          "name": "previousAdminRole",
          "type": "bytes32"
        },
        {
          "indexed": true,
          "internalType": "bytes32",
          "name": "newAdminRole",
          "type": "bytes32"
        }
      ],
      "name": "RoleAdminChanged",
      "type": "event"
    },
    {
      "anonymous": false,
      "inputs": [
        {
          "indexed": true,
          "internalType": "bytes32",
          "name": "role",
          "type": "bytes32"
        },
        {
          "indexed": true,
          "internalType": "address",
          "name": "account",
          "type": "address"
        },
        {
          "indexed": true,
          "internalType": "address",
          "name": "sender",
          "type": "address"
        }
      ],
      "name": "RoleGranted",
      "type": "event"
    },
    {
      "anonymous": false,
      "inputs": [
        {
          "indexed": true,
          "internalType": "bytes32",
          "name": "role",
          "type": "bytes32"
        },
        {
          "indexed": true,
          "internalType": "address",
          "name": "account",
          "type": "address"
        },
        {
          "indexed": true,
          "internalType": "address",
          "name": "sender",
          "type": "address"
        }
      ],
      "name": "RoleRevoked",
      "type": "event"
    },
    {
      "anonymous": false,
      "inputs": [
        {
          "indexed": true,
          "internalType": "address",
          "name": "from",
          "type": "address"
        },
        {
          "indexed": true,
          "internalType": "address",
          "name": "to",
          "type": "address"
        },
        {
          "indexed": false,
          "internalType": "uint256",
          "name": "value",
          "type": "uint256"
        }
      ],
      "name": "Transfer",
      "type": "event"
    },
    {
      "inputs": [],
      "name": "DEFAULT_ADMIN_ROLE",
      "outputs": [
        {
          "internalType": "bytes32",
          "name": "",
          "type": "bytes32"
        }
      ],
      "stateMutability": "view",
      "type": "function"
    },
    {
      "inputs": [],
      "name": "DOMAIN_SEPARATOR",
      "outputs": [
        {
          "internalType": "bytes32",
          "name": "",
          "type": "bytes32"
        }
      ],
      "stateMutability": "view",
      "type": "function"
    },
    {
      "inputs": [],
      "name": "MANAGER_ROLE",
      "outputs": [
        {
          "internalType": "bytes32",
          "name": "",
          "type": "bytes32"
        }
      ],
      "stateMutability": "view",
      "type": "function"
    },
    {
      "inputs": [],
      "name": "SEND",
      "outputs": [
        {
          "internalType": "uint16",
          "name": "",
          "type": "uint16"
        }
      ],
      "stateMutability": "view",
      "type": "function"
    },
    {
      "inputs": [],
      "name": "SEND_AND_CALL",
      "outputs": [
        {
          "internalType": "uint16",
          "name": "",
          "type": "uint16"
        }
      ],
      "stateMutability": "view",
      "type": "function"
    },
    {
      "inputs": [
        {
          "components": [
            {
              "internalType": "uint32",
              "name": "srcEid",
              "type": "uint32"
            },
            {
              "internalType": "bytes32",
              "name": "sender",
              "type": "bytes32"
            },
            {
              "internalType": "uint64",
              "name": "nonce",
              "type": "uint64"
            }
          ],
          "internalType": "struct Origin",
          "name": "origin",
          "type": "tuple"
        }
      ],
      "name": "allowInitializePath",
      "outputs": [
        {
          "internalType": "bool",
          "name": "",
          "type": "bool"
        }
      ],
      "stateMutability": "view",
      "type": "function"
    },
    {
      "inputs": [
        {
          "internalType": "address",
          "name": "owner",
          "type": "address"
        },
        {
          "internalType": "address",
          "name": "spender",
          "type": "address"
        }
      ],
      "name": "allowance",
      "outputs": [
        {
          "internalType": "uint256",
          "name": "",
          "type": "uint256"
        }
      ],
      "stateMutability": "view",
      "type": "function"
    },
    {
      "inputs": [],
      "name": "approvalRequired",
      "outputs": [
        {
          "internalType": "bool",
          "name": "",
          "type": "bool"
        }
      ],
      "stateMutability": "pure",
      "type": "function"
    },
    {
      "inputs": [
        {
          "internalType": "address",
          "name": "spender",
          "type": "address"
        },
        {
          "internalType": "uint256",
          "name": "value",
          "type": "uint256"
        }
      ],
      "name": "approve",
      "outputs": [
        {
          "internalType": "bool",
          "name": "",
          "type": "bool"
        }
      ],
      "stateMutability": "nonpayable",
      "type": "function"
    },
    {
      "inputs": [
        {
          "internalType": "address",
          "name": "account",
          "type": "address"
        }
      ],
      "name": "balanceOf",
      "outputs": [
        {
          "internalType": "uint256",
          "name": "",
          "type": "uint256"
        }
      ],
      "stateMutability": "view",
      "type": "function"
    },
    {
      "inputs": [
        {
          "internalType": "address",
          "name": "_account",
          "type": "address"
        },
        {
          "internalType": "uint256",
          "name": "_amount",
          "type": "uint256"
        }
      ],
      "name": "burn",
      "outputs": [],
      "stateMutability": "nonpayable",
      "type": "function"
    },
    {
      "inputs": [
        {
          "internalType": "uint32",
          "name": "_eid",
          "type": "uint32"
        },
        {
          "internalType": "uint16",
          "name": "_msgType",
          "type": "uint16"
        },
        {
          "internalType": "bytes",
          "name": "_extraOptions",
          "type": "bytes"
        }
      ],
      "name": "combineOptions",
      "outputs": [
        {
          "internalType": "bytes",
          "name": "",
          "type": "bytes"
        }
      ],
      "stateMutability": "view",
      "type": "function"
    },
    {
      "inputs": [],
      "name": "decimalConversionRate",
      "outputs": [
        {
          "internalType": "uint256",
          "name": "",
          "type": "uint256"
        }
      ],
      "stateMutability": "view",
      "type": "function"
    },
    {
      "inputs": [],
      "name": "decimals",
      "outputs": [
        {
          "internalType": "uint8",
          "name": "",
          "type": "uint8"
        }
      ],
      "stateMutability": "view",
      "type": "function"
    },
    {
      "inputs": [],
      "name": "eip712Domain",
      "outputs": [
        {
          "internalType": "bytes1",
          "name": "fields",
          "type": "bytes1"
        },
        {
          "internalType": "string",
          "name": "name",
          "type": "string"
        },
        {
          "internalType": "string",
          "name": "version",
          "type": "string"
        },
        {
          "internalType": "uint256",
          "name": "chainId",
          "type": "uint256"
        },
        {
          "internalType": "address",
          "name": "verifyingContract",
          "type": "address"
        },
        {
          "internalType": "bytes32",
          "name": "salt",
          "type": "bytes32"
        },
        {
          "internalType": "uint256[]",
          "name": "extensions",
          "type": "uint256[]"
        }
      ],
      "stateMutability": "view",
      "type": "function"
    },
    {
      "inputs": [],
      "name": "endpoint",
      "outputs": [
        {
          "internalType": "contract ILayerZeroEndpointV2",
          "name": "",
          "type": "address"
        }
      ],
      "stateMutability": "view",
      "type": "function"
    },
    {
      "inputs": [
        {
          "internalType": "uint32",
          "name": "eid",
          "type": "uint32"
        },
        {
          "internalType": "uint16",
          "name": "msgType",
          "type": "uint16"
        }
      ],
      "name": "enforcedOptions",
      "outputs": [
        {
          "internalType": "bytes",
          "name": "enforcedOption",
          "type": "bytes"
        }
      ],
      "stateMutability": "view",
      "type": "function"
    },
    {
      "inputs": [
        {
          "internalType": "address",
          "name": "token",
          "type": "address"
        },
        {
          "internalType": "uint256",
          "name": "value",
          "type": "uint256"
        }
      ],
      "name": "flashFee",
      "outputs": [
        {
          "internalType": "uint256",
          "name": "",
          "type": "uint256"
        }
      ],
      "stateMutability": "view",
      "type": "function"
    },
    {
      "inputs": [
        {
          "internalType": "contract IERC3156FlashBorrower",
          "name": "receiver",
          "type": "address"
        },
        {
          "internalType": "address",
          "name": "token",
          "type": "address"
        },
        {
          "internalType": "uint256",
          "name": "value",
          "type": "uint256"
        },
        {
          "internalType": "bytes",
          "name": "data",
          "type": "bytes"
        }
      ],
      "name": "flashLoan",
      "outputs": [
        {
          "internalType": "bool",
          "name": "",
          "type": "bool"
        }
      ],
      "stateMutability": "nonpayable",
      "type": "function"
    },
    {
      "inputs": [
        {
          "internalType": "bytes32",
          "name": "role",
          "type": "bytes32"
        }
      ],
      "name": "getRoleAdmin",
      "outputs": [
        {
          "internalType": "bytes32",
          "name": "",
          "type": "bytes32"
        }
      ],
      "stateMutability": "view",
      "type": "function"
    },
    {
      "inputs": [
        {
          "internalType": "bytes32",
          "name": "role",
          "type": "bytes32"
        },
        {
          "internalType": "uint256",
          "name": "index",
          "type": "uint256"
        }
      ],
      "name": "getRoleMember",
      "outputs": [
        {
          "internalType": "address",
          "name": "",
          "type": "address"
        }
      ],
      "stateMutability": "view",
      "type": "function"
    },
    {
      "inputs": [
        {
          "internalType": "bytes32",
          "name": "role",
          "type": "bytes32"
        }
      ],
      "name": "getRoleMemberCount",
      "outputs": [
        {
          "internalType": "uint256",
          "name": "",
          "type": "uint256"
        }
      ],
      "stateMutability": "view",
      "type": "function"
    },
    {
      "inputs": [
        {
          "internalType": "address",
          "name": "_account",
          "type": "address"
        }
      ],
      "name": "grantManagerRole",
      "outputs": [],
      "stateMutability": "nonpayable",
      "type": "function"
    },
    {
      "inputs": [
        {
          "internalType": "bytes32",
          "name": "role",
          "type": "bytes32"
        },
        {
          "internalType": "address",
          "name": "account",
          "type": "address"
        }
      ],
      "name": "grantRole",
      "outputs": [],
      "stateMutability": "nonpayable",
      "type": "function"
    },
    {
      "inputs": [
        {
          "internalType": "bytes32",
          "name": "role",
          "type": "bytes32"
        },
        {
          "internalType": "address",
          "name": "account",
          "type": "address"
        }
      ],
      "name": "hasRole",
      "outputs": [
        {
          "internalType": "bool",
          "name": "",
          "type": "bool"
        }
      ],
      "stateMutability": "view",
      "type": "function"
    },
    {
      "inputs": [
        {
          "components": [
            {
              "internalType": "uint32",
              "name": "srcEid",
              "type": "uint32"
            },
            {
              "internalType": "bytes32",
              "name": "sender",
              "type": "bytes32"
            },
            {
              "internalType": "uint64",
              "name": "nonce",
              "type": "uint64"
            }
          ],
          "internalType": "struct Origin",
          "name": "",
          "type": "tuple"
        },
        {
          "internalType": "bytes",
          "name": "",
          "type": "bytes"
        },
        {
          "internalType": "address",
          "name": "_sender",
          "type": "address"
        }
      ],
      "name": "isComposeMsgSender",
      "outputs": [
        {
          "internalType": "bool",
          "name": "",
          "type": "bool"
        }
      ],
      "stateMutability": "view",
      "type": "function"
    },
    {
      "inputs": [
        {
          "internalType": "address",
          "name": "_account",
          "type": "address"
        }
      ],
      "name": "isManager",
      "outputs": [
        {
          "internalType": "bool",
          "name": "what",
          "type": "bool"
        }
      ],
      "stateMutability": "view",
      "type": "function"
    },
    {
      "inputs": [
        {
          "internalType": "uint32",
          "name": "_eid",
          "type": "uint32"
        },
        {
          "internalType": "bytes32",
          "name": "_peer",
          "type": "bytes32"
        }
      ],
      "name": "isPeer",
      "outputs": [
        {
          "internalType": "bool",
          "name": "",
          "type": "bool"
        }
      ],
      "stateMutability": "view",
      "type": "function"
    },
    {
      "inputs": [
        {
          "components": [
            {
              "internalType": "uint32",
              "name": "srcEid",
              "type": "uint32"
            },
            {
              "internalType": "bytes32",
              "name": "sender",
              "type": "bytes32"
            },
            {
              "internalType": "uint64",
              "name": "nonce",
              "type": "uint64"
            }
          ],
          "internalType": "struct Origin",
          "name": "_origin",
          "type": "tuple"
        },
        {
          "internalType": "bytes32",
          "name": "_guid",
          "type": "bytes32"
        },
        {
          "internalType": "bytes",
          "name": "_message",
          "type": "bytes"
        },
        {
          "internalType": "address",
          "name": "_executor",
          "type": "address"
        },
        {
          "internalType": "bytes",
          "name": "_extraData",
          "type": "bytes"
        }
      ],
      "name": "lzReceive",
      "outputs": [],
      "stateMutability": "payable",
      "type": "function"
    },
    {
      "inputs": [
        {
          "components": [
            {
              "components": [
                {
                  "internalType": "uint32",
                  "name": "srcEid",
                  "type": "uint32"
                },
                {
                  "internalType": "bytes32",
                  "name": "sender",
                  "type": "bytes32"
                },
                {
                  "internalType": "uint64",
                  "name": "nonce",
                  "type": "uint64"
                }
              ],
              "internalType": "struct Origin",
              "name": "origin",
              "type": "tuple"
            },
            {
              "internalType": "uint32",
              "name": "dstEid",
              "type": "uint32"
            },
            {
              "internalType": "address",
              "name": "receiver",
              "type": "address"
            },
            {
              "internalType": "bytes32",
              "name": "guid",
              "type": "bytes32"
            },
            {
              "internalType": "uint256",
              "name": "value",
              "type": "uint256"
            },
            {
              "internalType": "address",
              "name": "executor",
              "type": "address"
            },
            {
              "internalType": "bytes",
              "name": "message",
              "type": "bytes"
            },
            {
              "internalType": "bytes",
              "name": "extraData",
              "type": "bytes"
            }
          ],
          "internalType": "struct InboundPacket[]",
          "name": "_packets",
          "type": "tuple[]"
        }
      ],
      "name": "lzReceiveAndRevert",
      "outputs": [],
      "stateMutability": "payable",
      "type": "function"
    },
    {
      "inputs": [
        {
          "components": [
            {
              "internalType": "uint32",
              "name": "srcEid",
              "type": "uint32"
            },
            {
              "internalType": "bytes32",
              "name": "sender",
              "type": "bytes32"
            },
            {
              "internalType": "uint64",
              "name": "nonce",
              "type": "uint64"
            }
          ],
          "internalType": "struct Origin",
          "name": "_origin",
          "type": "tuple"
        },
        {
          "internalType": "bytes32",
          "name": "_guid",
          "type": "bytes32"
        },
        {
          "internalType": "bytes",
          "name": "_message",
          "type": "bytes"
        },
        {
          "internalType": "address",
          "name": "_executor",
          "type": "address"
        },
        {
          "internalType": "bytes",
          "name": "_extraData",
          "type": "bytes"
        }
      ],
      "name": "lzReceiveSimulate",
      "outputs": [],
      "stateMutability": "payable",
      "type": "function"
    },
    {
      "inputs": [
        {
          "internalType": "address",
          "name": "token",
          "type": "address"
        }
      ],
      "name": "maxFlashLoan",
      "outputs": [
        {
          "internalType": "uint256",
          "name": "",
          "type": "uint256"
        }
      ],
      "stateMutability": "view",
      "type": "function"
    },
    {
      "inputs": [
        {
          "internalType": "address",
          "name": "_account",
          "type": "address"
        },
        {
          "internalType": "uint256",
          "name": "_amount",
          "type": "uint256"
        }
      ],
      "name": "mint",
      "outputs": [],
      "stateMutability": "nonpayable",
      "type": "function"
    },
    {
      "inputs": [],
      "name": "msgInspector",
      "outputs": [
        {
          "internalType": "address",
          "name": "",
          "type": "address"
        }
      ],
      "stateMutability": "view",
      "type": "function"
    },
    {
      "inputs": [],
      "name": "name",
      "outputs": [
        {
          "internalType": "string",
          "name": "",
          "type": "string"
        }
      ],
      "stateMutability": "view",
      "type": "function"
    },
    {
      "inputs": [
        {
          "internalType": "uint32",
          "name": "",
          "type": "uint32"
        },
        {
          "internalType": "bytes32",
          "name": "",
          "type": "bytes32"
        }
      ],
      "name": "nextNonce",
      "outputs": [
        {
          "internalType": "uint64",
          "name": "nonce",
          "type": "uint64"
        }
      ],
      "stateMutability": "view",
      "type": "function"
    },
    {
      "inputs": [
        {
          "internalType": "address",
          "name": "owner",
          "type": "address"
        }
      ],
      "name": "nonces",
      "outputs": [
        {
          "internalType": "uint256",
          "name": "",
          "type": "uint256"
        }
      ],
      "stateMutability": "view",
      "type": "function"
    },
    {
      "inputs": [],
      "name": "oApp",
      "outputs": [
        {
          "internalType": "address",
          "name": "",
          "type": "address"
        }
      ],
      "stateMutability": "view",
      "type": "function"
    },
    {
      "inputs": [],
      "name": "oAppVersion",
      "outputs": [
        {
          "internalType": "uint64",
          "name": "senderVersion",
          "type": "uint64"
        },
        {
          "internalType": "uint64",
          "name": "receiverVersion",
          "type": "uint64"
        }
      ],
      "stateMutability": "pure",
      "type": "function"
    },
    {
      "inputs": [],
      "name": "oftVersion",
      "outputs": [
        {
          "internalType": "bytes4",
          "name": "interfaceId",
          "type": "bytes4"
        },
        {
          "internalType": "uint64",
          "name": "version",
          "type": "uint64"
        }
      ],
      "stateMutability": "pure",
      "type": "function"
    },
    {
      "inputs": [],
      "name": "owner",
      "outputs": [
        {
          "internalType": "address",
          "name": "",
          "type": "address"
        }
      ],
      "stateMutability": "view",
      "type": "function"
    },
    {
      "inputs": [
        {
          "internalType": "uint32",
          "name": "eid",
          "type": "uint32"
        }
      ],
      "name": "peers",
      "outputs": [
        {
          "internalType": "bytes32",
          "name": "peer",
          "type": "bytes32"
        }
      ],
      "stateMutability": "view",
      "type": "function"
    },
    {
      "inputs": [
        {
          "internalType": "address",
          "name": "owner",
          "type": "address"
        },
        {
          "internalType": "address",
          "name": "spender",
          "type": "address"
        },
        {
          "internalType": "uint256",
          "name": "value",
          "type": "uint256"
        },
        {
          "internalType": "uint256",
          "name": "deadline",
          "type": "uint256"
        },
        {
          "internalType": "uint8",
          "name": "v",
          "type": "uint8"
        },
        {
          "internalType": "bytes32",
          "name": "r",
          "type": "bytes32"
        },
        {
          "internalType": "bytes32",
          "name": "s",
          "type": "bytes32"
        }
      ],
      "name": "permit",
      "outputs": [],
      "stateMutability": "nonpayable",
      "type": "function"
    },
    {
      "inputs": [],
      "name": "preCrime",
      "outputs": [
        {
          "internalType": "address",
          "name": "",
          "type": "address"
        }
      ],
      "stateMutability": "view",
      "type": "function"
    },
    {
      "inputs": [
        {
          "components": [
            {
              "internalType": "uint32",
              "name": "dstEid",
              "type": "uint32"
            },
            {
              "internalType": "bytes32",
              "name": "to",
              "type": "bytes32"
            },
            {
              "internalType": "uint256",
              "name": "amountLD",
              "type": "uint256"
            },
            {
              "internalType": "uint256",
              "name": "minAmountLD",
              "type": "uint256"
            },
            {
              "internalType": "bytes",
              "name": "extraOptions",
              "type": "bytes"
            },
            {
              "internalType": "bytes",
              "name": "composeMsg",
              "type": "bytes"
            },
            {
              "internalType": "bytes",
              "name": "oftCmd",
              "type": "bytes"
            }
          ],
          "internalType": "struct SendParam",
          "name": "_sendParam",
          "type": "tuple"
        }
      ],
      "name": "quoteOFT",
      "outputs": [
        {
          "components": [
            {
              "internalType": "uint256",
              "name": "minAmountLD",
              "type": "uint256"
            },
            {
              "internalType": "uint256",
              "name": "maxAmountLD",
              "type": "uint256"
            }
          ],
          "internalType": "struct OFTLimit",
          "name": "oftLimit",
          "type": "tuple"
        },
        {
          "components": [
            {
              "internalType": "int256",
              "name": "feeAmountLD",
              "type": "int256"
            },
            {
              "internalType": "string",
              "name": "description",
              "type": "string"
            }
          ],
          "internalType": "struct OFTFeeDetail[]",
          "name": "oftFeeDetails",
          "type": "tuple[]"
        },
        {
          "components": [
            {
              "internalType": "uint256",
              "name": "amountSentLD",
              "type": "uint256"
            },
            {
              "internalType": "uint256",
              "name": "amountReceivedLD",
              "type": "uint256"
            }
          ],
          "internalType": "struct OFTReceipt",
          "name": "oftReceipt",
          "type": "tuple"
        }
      ],
      "stateMutability": "view",
      "type": "function"
    },
    {
      "inputs": [
        {
          "components": [
            {
              "internalType": "uint32",
              "name": "dstEid",
              "type": "uint32"
            },
            {
              "internalType": "bytes32",
              "name": "to",
              "type": "bytes32"
            },
            {
              "internalType": "uint256",
              "name": "amountLD",
              "type": "uint256"
            },
            {
              "internalType": "uint256",
              "name": "minAmountLD",
              "type": "uint256"
            },
            {
              "internalType": "bytes",
              "name": "extraOptions",
              "type": "bytes"
            },
            {
              "internalType": "bytes",
              "name": "composeMsg",
              "type": "bytes"
            },
            {
              "internalType": "bytes",
              "name": "oftCmd",
              "type": "bytes"
            }
          ],
          "internalType": "struct SendParam",
          "name": "_sendParam",
          "type": "tuple"
        },
        {
          "internalType": "bool",
          "name": "_payInLzToken",
          "type": "bool"
        }
      ],
      "name": "quoteSend",
      "outputs": [
        {
          "components": [
            {
              "internalType": "uint256",
              "name": "nativeFee",
              "type": "uint256"
            },
            {
              "internalType": "uint256",
              "name": "lzTokenFee",
              "type": "uint256"
            }
          ],
          "internalType": "struct MessagingFee",
          "name": "msgFee",
          "type": "tuple"
        }
      ],
      "stateMutability": "view",
      "type": "function"
    },
    {
      "inputs": [],
      "name": "renounceOwnership",
      "outputs": [],
      "stateMutability": "nonpayable",
      "type": "function"
    },
    {
      "inputs": [
        {
          "internalType": "bytes32",
          "name": "role",
          "type": "bytes32"
        },
        {
          "internalType": "address",
          "name": "callerConfirmation",
          "type": "address"
        }
      ],
      "name": "renounceRole",
      "outputs": [],
      "stateMutability": "nonpayable",
      "type": "function"
    },
    {
      "inputs": [
        {
          "internalType": "address",
          "name": "_account",
          "type": "address"
        }
      ],
      "name": "revokeManagerRole",
      "outputs": [],
      "stateMutability": "nonpayable",
      "type": "function"
    },
    {
      "inputs": [
        {
          "internalType": "bytes32",
          "name": "role",
          "type": "bytes32"
        },
        {
          "internalType": "address",
          "name": "account",
          "type": "address"
        }
      ],
      "name": "revokeRole",
      "outputs": [],
      "stateMutability": "nonpayable",
      "type": "function"
    },
    {
      "inputs": [
        {
          "components": [
            {
              "internalType": "uint32",
              "name": "dstEid",
              "type": "uint32"
            },
            {
              "internalType": "bytes32",
              "name": "to",
              "type": "bytes32"
            },
            {
              "internalType": "uint256",
              "name": "amountLD",
              "type": "uint256"
            },
            {
              "internalType": "uint256",
              "name": "minAmountLD",
              "type": "uint256"
            },
            {
              "internalType": "bytes",
              "name": "extraOptions",
              "type": "bytes"
            },
            {
              "internalType": "bytes",
              "name": "composeMsg",
              "type": "bytes"
            },
            {
              "internalType": "bytes",
              "name": "oftCmd",
              "type": "bytes"
            }
          ],
          "internalType": "struct SendParam",
          "name": "_sendParam",
          "type": "tuple"
        },
        {
          "components": [
            {
              "internalType": "uint256",
              "name": "nativeFee",
              "type": "uint256"
            },
            {
              "internalType": "uint256",
              "name": "lzTokenFee",
              "type": "uint256"
            }
          ],
          "internalType": "struct MessagingFee",
          "name": "_fee",
          "type": "tuple"
        },
        {
          "internalType": "address",
          "name": "_refundAddress",
          "type": "address"
        }
      ],
      "name": "send",
      "outputs": [
        {
          "components": [
            {
              "internalType": "bytes32",
              "name": "guid",
              "type": "bytes32"
            },
            {
              "internalType": "uint64",
              "name": "nonce",
              "type": "uint64"
            },
            {
              "components": [
                {
                  "internalType": "uint256",
                  "name": "nativeFee",
                  "type": "uint256"
                },
                {
                  "internalType": "uint256",
                  "name": "lzTokenFee",
                  "type": "uint256"
                }
              ],
              "internalType": "struct MessagingFee",
              "name": "fee",
              "type": "tuple"
            }
          ],
          "internalType": "struct MessagingReceipt",
          "name": "msgReceipt",
          "type": "tuple"
        },
        {
          "components": [
            {
              "internalType": "uint256",
              "name": "amountSentLD",
              "type": "uint256"
            },
            {
              "internalType": "uint256",
              "name": "amountReceivedLD",
              "type": "uint256"
            }
          ],
          "internalType": "struct OFTReceipt",
          "name": "oftReceipt",
          "type": "tuple"
        }
      ],
      "stateMutability": "payable",
      "type": "function"
    },
    {
      "inputs": [
        {
          "internalType": "address",
          "name": "_delegate",
          "type": "address"
        }
      ],
      "name": "setDelegate",
      "outputs": [],
      "stateMutability": "nonpayable",
      "type": "function"
    },
    {
      "inputs": [
        {
          "components": [
            {
              "internalType": "uint32",
              "name": "eid",
              "type": "uint32"
            },
            {
              "internalType": "uint16",
              "name": "msgType",
              "type": "uint16"
            },
            {
              "internalType": "bytes",
              "name": "options",
              "type": "bytes"
            }
          ],
          "internalType": "struct EnforcedOptionParam[]",
          "name": "_enforcedOptions",
          "type": "tuple[]"
        }
      ],
      "name": "setEnforcedOptions",
      "outputs": [],
      "stateMutability": "nonpayable",
      "type": "function"
    },
    {
      "inputs": [
        {
          "internalType": "address",
          "name": "_msgInspector",
          "type": "address"
        }
      ],
      "name": "setMsgInspector",
      "outputs": [],
      "stateMutability": "nonpayable",
      "type": "function"
    },
    {
      "inputs": [
        {
          "internalType": "uint32",
          "name": "_eid",
          "type": "uint32"
        },
        {
          "internalType": "bytes32",
          "name": "_peer",
          "type": "bytes32"
        }
      ],
      "name": "setPeer",
      "outputs": [],
      "stateMutability": "nonpayable",
      "type": "function"
    },
    {
      "inputs": [
        {
          "internalType": "address",
          "name": "_preCrime",
          "type": "address"
        }
      ],
      "name": "setPreCrime",
      "outputs": [],
      "stateMutability": "nonpayable",
      "type": "function"
    },
    {
      "inputs": [],
      "name": "sharedDecimals",
      "outputs": [
        {
          "internalType": "uint8",
          "name": "",
          "type": "uint8"
        }
      ],
      "stateMutability": "view",
      "type": "function"
    },
    {
      "inputs": [
        {
          "internalType": "bytes4",
          "name": "interfaceId",
          "type": "bytes4"
        }
      ],
      "name": "supportsInterface",
      "outputs": [
        {
          "internalType": "bool",
          "name": "",
          "type": "bool"
        }
      ],
      "stateMutability": "view",
      "type": "function"
    },
    {
      "inputs": [],
      "name": "symbol",
      "outputs": [
        {
          "internalType": "string",
          "name": "",
          "type": "string"
        }
      ],
      "stateMutability": "view",
      "type": "function"
    },
    {
      "inputs": [],
      "name": "token",
      "outputs": [
        {
          "internalType": "address",
          "name": "",
          "type": "address"
        }
      ],
      "stateMutability": "view",
      "type": "function"
    },
    {
      "inputs": [],
      "name": "totalSupply",
      "outputs": [
        {
          "internalType": "uint256",
          "name": "",
          "type": "uint256"
        }
      ],
      "stateMutability": "view",
      "type": "function"
    },
    {
      "inputs": [
        {
          "internalType": "address",
          "name": "to",
          "type": "address"
        },
        {
          "internalType": "uint256",
          "name": "value",
          "type": "uint256"
        }
      ],
      "name": "transfer",
      "outputs": [
        {
          "internalType": "bool",
          "name": "",
          "type": "bool"
        }
      ],
      "stateMutability": "nonpayable",
      "type": "function"
    },
    {
      "inputs": [
        {
          "internalType": "address",
          "name": "from",
          "type": "address"
        },
        {
          "internalType": "address",
          "name": "to",
          "type": "address"
        },
        {
          "internalType": "uint256",
          "name": "value",
          "type": "uint256"
        }
      ],
      "name": "transferFrom",
      "outputs": [
        {
          "internalType": "bool",
          "name": "",
          "type": "bool"
        }
      ],
      "stateMutability": "nonpayable",
      "type": "function"
    },
    {
      "inputs": [
        {
          "internalType": "address",
          "name": "newOwner",
          "type": "address"
        }
      ],
      "name": "transferOwnership",
      "outputs": [],
      "stateMutability": "nonpayable",
      "type": "function"
    }
  ],
  "bytecode": "0x6101a06040527f241ecf16d79d0f8dbfb92cbc07fe17840425976cf0667f022fe9877caa831b08600f553480156200003657600080fd5b50604051620054a7380380620054a783398101604081905262000059916200071e565b6040518060400160405280600e81526020016d2d30b49029ba30b13632b1b7b4b760911b815250604051806040016040528060048152602001632aa9a23d60e11b81525083836040518060400160405280600e81526020016d2d30b49029ba30b13632b1b7b4b760911b81525080604051806040016040528060018152602001603160f81b8152508686620000f36200033960201b60201c565b87878181818133806200012157604051631e4fbdf760e01b8152600060048201526024015b60405180910390fd5b6200012c816200033e565b506001600160a01b0380831660805281166200015b57604051632d618d8160e21b815260040160405180910390fd5b60805160405163ca5eb5e160e01b81526001600160a01b0383811660048301529091169063ca5eb5e190602401600060405180830381600087803b158015620001a357600080fd5b505af1158015620001b8573d6000803e3d6000fd5b5050505050505050620001d06200038e60201b60201c565b60ff168360ff161015620001f7576040516301e9714b60e41b815260040160405180910390fd5b620002046006846200076c565b6200021190600a62000885565b60a052506008915062000227905083826200093b565b5060096200023682826200093b565b50620002489150839050600a62000393565b610160526200025981600b62000393565b61018052815160208084019190912061012052815190820120610140524660e052620002e96101205161014051604080517f8b73c3c69bb8fe3d512ecc4cf759cc79239f7b179b0ffacaa9a75d522b39400f60208201529081019290925260608201524660808201523060a082015260009060c00160405160208183030381529060405280519060200120905090565b60c05250503061010052506200030f9350339250670de0b6b3a7640000915050620003cc565b6200032333670de0b6b3a76400006200040a565b6200033060003062000444565b50505062000a92565b601290565b600080546001600160a01b038381166001600160a01b0319831681178455604051919092169283917f8be0079c531659141344cd1fd0a4f28419497f9722a3daafe3b4186f6b6457e09190a35050565b600690565b6000602083511015620003b357620003ab836200047f565b9050620003c6565b81620003c084826200093b565b5060ff90505b92915050565b6001600160a01b038216620003f85760405163ec442f0560e01b81526000600482015260240162000118565b6200040660008383620004c2565b5050565b6001600160a01b0382166200043657604051634b637e8f60e11b81526000600482015260240162000118565b6200040682600083620004c2565b600080620004538484620005f5565b9050801562000478576000848152600e60205260409020620004769084620006a7565b505b9392505050565b600080829050601f81511115620004ad578260405163305a27a960e01b815260040162000118919062000a07565b8051620004ba8262000a57565b179392505050565b6001600160a01b038316620004f1578060076000828254620004e5919062000a7c565b90915550620005659050565b6001600160a01b03831660009081526005602052604090205481811015620005465760405163391434e360e21b81526001600160a01b0385166004820152602481018290526044810183905260640162000118565b6001600160a01b03841660009081526005602052604090209082900390555b6001600160a01b0382166200058357600780548290039055620005a2565b6001600160a01b03821660009081526005602052604090208054820190555b816001600160a01b0316836001600160a01b03167fddf252ad1be2c89b69c2b068fc378daa952ba7f163c4a11628f55a4df523b3ef83604051620005e891815260200190565b60405180910390a3505050565b6000828152600d602090815260408083206001600160a01b038516845290915281205460ff166200069e576000838152600d602090815260408083206001600160a01b03861684529091529020805460ff19166001179055620006553390565b6001600160a01b0316826001600160a01b0316847f2f8788117e7eff1d82e926ec794901d17c78024a50270940304540a733656f0d60405160405180910390a4506001620003c6565b506000620003c6565b600062000478836001600160a01b03841660008181526001830160205260408120546200069e57508154600181810184556000848152602080822090930184905584548482528286019093526040902091909155620003c6565b80516001600160a01b03811681146200071957600080fd5b919050565b600080604083850312156200073257600080fd5b6200073d8362000701565b91506200074d6020840162000701565b90509250929050565b634e487b7160e01b600052601160045260246000fd5b60ff8281168282160390811115620003c657620003c662000756565b600181815b80851115620007c9578160001904821115620007ad57620007ad62000756565b80851615620007bb57918102915b93841c93908002906200078d565b509250929050565b600082620007e257506001620003c6565b81620007f157506000620003c6565b81600181146200080a5760028114620008155762000835565b6001915050620003c6565b60ff84111562000829576200082962000756565b50506001821b620003c6565b5060208310610133831016604e8410600b84101617156200085a575081810a620003c6565b62000866838362000788565b80600019048211156200087d576200087d62000756565b029392505050565b60006200047860ff841683620007d1565b634e487b7160e01b600052604160045260246000fd5b600181811c90821680620008c157607f821691505b602082108103620008e257634e487b7160e01b600052602260045260246000fd5b50919050565b601f8211156200093657600081815260208120601f850160051c81016020861015620009115750805b601f850160051c820191505b8181101562000932578281556001016200091d565b5050505b505050565b81516001600160401b0381111562000957576200095762000896565b6200096f81620009688454620008ac565b84620008e8565b602080601f831160018114620009a757600084156200098e5750858301515b600019600386901b1c1916600185901b17855562000932565b600085815260208120601f198616915b82811015620009d857888601518255948401946001909101908401620009b7565b5085821015620009f75787850151600019600388901b60f8161c191681555b5050505050600190811b01905550565b600060208083528351808285015260005b8181101562000a365785810183015185820160400152820162000a18565b506000604082860101526040601f19601f8301168501019250505092915050565b80516020808301519190811015620008e25760001960209190910360031b1b16919050565b80820180821115620003c657620003c662000756565b60805160a05160c05160e051610100516101205161014051610160516101805161495e62000b4960003960006125d2015260006125a501526000612239015260006122110152600061216c01526000612196015260006121c001526000818161097a015281816129fd01528181612a720152612e5d01526000818161076a01528181610e370152818161194301528181611ec30152818161240a0152818161279a0152818161301601526130e8015261495e6000f3fe6080604052600436106103c35760003560e01c806382413eac116101f2578063bd815db01161010d578063d547741f116100a0578063f2fde38b1161006f578063f2fde38b14610c15578063f3ae241514610c35578063fc0c546a146106ce578063ff7bd03d14610c5557600080fd5b8063d547741f14610b79578063d9d98ce414610b99578063dd62ed3e14610bb9578063ec87621c14610bff57600080fd5b8063ca5eb5e1116100dc578063ca5eb5e114610b06578063d045a0dc14610b26578063d424388514610b39578063d505accf14610b5957600080fd5b8063bd815db014610a92578063be4dc94f14610aa5578063c7c7f5b314610ac5578063ca15c87314610ae657600080fd5b80639dc29fac11610185578063b731ea0a11610154578063b731ea0a14610a05578063b98bd07014610a25578063bb0b6a5314610a45578063bc70b35414610a7257600080fd5b80639dc29fac1461099c5780639f68b964146109bc578063a217fddf146109d0578063a9059cbb146109e557600080fd5b80639010d07c116101c15780639010d07c146108ed57806391d148541461090d57806395d89b4114610953578063963efcaa1461096857600080fd5b806382413eac1461087357806384b0196e14610893578063857749b0146108bb5780638da5cb5b146108cf57600080fd5b80633400288b116102e25780635cffe9de1161027557806370a082311161024457806370a08231146107cc578063715018a6146108025780637d25a05e146108175780637ecebe001461085357600080fd5b80635cffe9de146107385780635e280f1114610758578063613255ab1461078c5780636fc1b31e146107ac57600080fd5b806340c10f19116102b157806340c10f19146106ae57806352ae2879146106ce5780635535d461146106e15780635a0dfe4d1461070157600080fd5b80633400288b1461062c5780633644e5151461064c57806336568abe146106615780633b6f743b1461068157600080fd5b806317442b701161035a578063248a9ca311610329578063248a9ca31461059a57806326e885e3146105ca5780632f2ff15d146105ea578063313ce5671461060a57600080fd5b806317442b701461052457806318160ddd146105465780631f5e13341461056557806323b872dd1461057a57600080fd5b8063111ecdad11610396578063111ecdad1461046e57806313137d65146104a6578063134d4f25146104bb578063156a0d0f146104e357600080fd5b806301ffc9a7146103c857806306fdde03146103fd578063095ea7b31461041f5780630d35b4151461043f575b600080fd5b3480156103d457600080fd5b506103e86103e3366004613710565b610c75565b60405190151581526020015b60405180910390f35b34801561040957600080fd5b50610412610cb9565b6040516103f4919061378a565b34801561042b57600080fd5b506103e861043a3660046137b2565b610d4b565b34801561044b57600080fd5b5061045f61045a3660046137f6565b610d63565b6040516103f49392919061382b565b34801561047a57600080fd5b5060045461048e906001600160a01b031681565b6040516001600160a01b0390911681526020016103f4565b6104b96104b436600461391e565b610e35565b005b3480156104c757600080fd5b506104d0600281565b60405161ffff90911681526020016103f4565b3480156104ef57600080fd5b50604080517f02e49c2c00000000000000000000000000000000000000000000000000000000815260016020820152016103f4565b34801561053057600080fd5b50604080516001815260026020820152016103f4565b34801561055257600080fd5b506007545b6040519081526020016103f4565b34801561057157600080fd5b506104d0600181565b34801561058657600080fd5b506103e86105953660046139be565b610f27565b3480156105a657600080fd5b506105576105b53660046139ff565b6000908152600d602052604090206001015490565b3480156105d657600080fd5b506104b96105e5366004613a18565b610f4d565b3480156105f657600080fd5b506104b9610605366004613a35565b610f65565b34801561061657600080fd5b5060125b60405160ff90911681526020016103f4565b34801561063857600080fd5b506104b9610647366004613a7e565b610f90565b34801561065857600080fd5b50610557610fa2565b34801561066d57600080fd5b506104b961067c366004613a35565b610fb1565b34801561068d57600080fd5b506106a161069c366004613aa8565b611002565b6040516103f49190613aef565b3480156106ba57600080fd5b506104b96106c93660046137b2565b611069565b3480156106da57600080fd5b503061048e565b3480156106ed57600080fd5b506104126106fc366004613b18565b61107f565b34801561070d57600080fd5b506103e861071c366004613a7e565b63ffffffff919091166000908152600160205260409020541490565b34801561074457600080fd5b506103e8610753366004613b4b565b611124565b34801561076457600080fd5b5061048e7f000000000000000000000000000000000000000000000000000000000000000081565b34801561079857600080fd5b506105576107a7366004613a18565b6112e8565b3480156107b857600080fd5b506104b96107c7366004613a18565b611310565b3480156107d857600080fd5b506105576107e7366004613a18565b6001600160a01b031660009081526005602052604090205490565b34801561080e57600080fd5b506104b961137a565b34801561082357600080fd5b5061083a610832366004613a7e565b600092915050565b60405167ffffffffffffffff90911681526020016103f4565b34801561085f57600080fd5b5061055761086e366004613a18565b61138e565b34801561087f57600080fd5b506103e861088e366004613bbe565b6113ac565b34801561089f57600080fd5b506108a86113c1565b6040516103f49796959493929190613c25565b3480156108c757600080fd5b50600661061a565b3480156108db57600080fd5b506000546001600160a01b031661048e565b3480156108f957600080fd5b5061048e610908366004613cd7565b611423565b34801561091957600080fd5b506103e8610928366004613a35565b6000918252600d602090815260408084206001600160a01b0393909316845291905290205460ff1690565b34801561095f57600080fd5b5061041261143b565b34801561097457600080fd5b506105577f000000000000000000000000000000000000000000000000000000000000000081565b3480156109a857600080fd5b506104b96109b73660046137b2565b61144a565b3480156109c857600080fd5b5060006103e8565b3480156109dc57600080fd5b50610557600081565b3480156109f157600080fd5b506103e8610a003660046137b2565b611460565b348015610a1157600080fd5b5060025461048e906001600160a01b031681565b348015610a3157600080fd5b506104b9610a40366004613d3e565b61146e565b348015610a5157600080fd5b50610557610a60366004613d80565b60016020526000908152604090205481565b348015610a7e57600080fd5b50610412610a8d366004613d9b565b611488565b6104b9610aa0366004613d3e565b611630565b348015610ab157600080fd5b506104b9610ac0366004613a18565b6117dd565b610ad8610ad3366004613dfc565b6117f1565b6040516103f4929190613e6a565b348015610af257600080fd5b50610557610b013660046139ff565b6118ec565b348015610b1257600080fd5b506104b9610b21366004613a18565b611903565b6104b9610b3436600461391e565b6119a2565b348015610b4557600080fd5b506104b9610b54366004613a18565b6119ea565b348015610b6557600080fd5b506104b9610b74366004613ebd565b611a4d565b348015610b8557600080fd5b506104b9610b94366004613a35565b611bb9565b348015610ba557600080fd5b50610557610bb43660046137b2565b611bde565b348015610bc557600080fd5b50610557610bd4366004613f34565b6001600160a01b03918216600090815260066020908152604080832093909416825291909152205490565b348015610c0b57600080fd5b50610557600f5481565b348015610c2157600080fd5b506104b9610c30366004613a18565b611c34565b348015610c4157600080fd5b506103e8610c50366004613a18565b611c8b565b348015610c6157600080fd5b506103e8610c70366004613f62565b611cb9565b60006001600160e01b031982167f5a05180f000000000000000000000000000000000000000000000000000000001480610cb35750610cb382611cef565b92915050565b606060088054610cc890613f7e565b80601f0160208091040260200160405190810160405280929190818152602001828054610cf490613f7e565b8015610d415780601f10610d1657610100808354040283529160200191610d41565b820191906000526020600020905b815481529060010190602001808311610d2457829003601f168201915b5050505050905090565b600033610d59818585611d56565b5060019392505050565b60408051808201909152600080825260208201526060610d96604051806040016040528060008152602001600081525090565b604080518082018252600080825267ffffffffffffffff602080840182905284518381529081019094529195509182610df2565b604080518082019091526000815260606020820152815260200190600190039081610dca5790505b509350600080610e17604089013560608a0135610e1260208c018c613d80565b611d63565b60408051808201909152918252602082015296989597505050505050565b7f00000000000000000000000000000000000000000000000000000000000000006001600160a01b03163314610e9e576040517f91ac5e4f0000000000000000000000000000000000000000000000000000000081523360048201526024015b60405180910390fd5b60208701803590610eb890610eb3908a613d80565b611dc0565b14610f0f57610eca6020880188613d80565b6040517fc26bebcc00000000000000000000000000000000000000000000000000000000815263ffffffff909116600482015260208801356024820152604401610e95565b610f1e87878787878787611e15565b50505050505050565b600033610f35858285611f95565b610f40858585612026565b60019150505b9392505050565b610f55612085565b610f61600f54826120cb565b5050565b6000828152600d6020526040902060010154610f8081612100565b610f8a83836120cb565b50505050565b610f98612085565b610f61828261210a565b6000610fac61215f565b905090565b6001600160a01b0381163314610ff3576040517f6697b23200000000000000000000000000000000000000000000000000000000815260040160405180910390fd5b610ffd828261228a565b505050565b6040805180820190915260008082526020820152600061103260408501356060860135610e126020880188613d80565b91505060008061104286846122b7565b909250905061105f6110576020880188613d80565b8383886123f4565b9695505050505050565b600f5461107581612100565b610ffd83836124d5565b6003602090815260009283526040808420909152908252902080546110a390613f7e565b80601f01602080910402602001604051908101604052809291908181526020018280546110cf90613f7e565b801561111c5780601f106110f15761010080835404028352916020019161111c565b820191906000526020600020905b8154815290600101906020018083116110ff57829003601f168201915b505050505081565b600080611130866112e8565b90508085111561116f576040517ffd9a760900000000000000000000000000000000000000000000000000000000815260048101829052602401610e95565b600061117b8787611bde565b905061118788876124d5565b6040517f23e30c8b0000000000000000000000000000000000000000000000000000000081527f439148f0bbc682ca079e46d6e2c2f0c1e3b820f1a291b069d8882abf8cf18dd9906001600160a01b038a16906323e30c8b906111f89033908c908c9088908d908d90600401613ff1565b6020604051808303816000875af1158015611217573d6000803e3d6000fd5b505050506040513d601f19601f8201168201806040525081019061123b9190614036565b1461127d576040517f678c5b000000000000000000000000000000000000000000000000000000000081526001600160a01b0389166004820152602401610e95565b6000611293893061128e858b614065565b611f95565b8115806112a757506001600160a01b038116155b156112c4576112bf896112ba848a614065565b61250b565b6112d9565b6112ce898861250b565b6112d9898284612026565b50600198975050505050505050565b60006001600160a01b0382163014611301576000610cb3565b600754610cb390600019614078565b611318612085565b6004805473ffffffffffffffffffffffffffffffffffffffff19166001600160a01b0383169081179091556040519081527ff0be4f1e87349231d80c36b33f9e8639658eeaf474014dee15a3e6a4d4414197906020015b60405180910390a150565b611382612085565b61138c6000612541565b565b6001600160a01b0381166000908152600c6020526040812054610cb3565b6001600160a01b03811630145b949350505050565b6000606080600080600060606113d561259e565b6113dd6125cb565b604080516000808252602082019092527f0f000000000000000000000000000000000000000000000000000000000000009b939a50919850469750309650945092509050565b6000828152600e60205260408120610f4690836125f8565b606060098054610cc890613f7e565b600f5461145681612100565b610ffd838361250b565b600033610d59818585612026565b611476612085565b610f616114838284614130565b612604565b63ffffffff8416600090815260036020908152604080832061ffff871684529091528120805460609291906114bc90613f7e565b80601f01602080910402602001604051908101604052809291908181526020018280546114e890613f7e565b80156115355780601f1061150a57610100808354040283529160200191611535565b820191906000526020600020905b81548152906001019060200180831161151857829003601f168201915b5050505050905080516000036115855783838080601f0160208091040260200160405190810160405280939291908181526020018383808284376000920191909152509294506113b99350505050565b60008390036115955790506113b9565b60028310611613576115dc84848080601f01602080910402602001604051908101604052809392919081815260200183838082843760009201919091525061271592505050565b806115ea8460028188614246565b6040516020016115fc93929190614270565b6040516020818303038152906040529150506113b9565b8383604051639a6d49cd60e01b8152600401610e95929190614298565b60005b81811015611743573683838381811061164e5761164e6142ac565b905060200281019061166091906142c2565b90506116936116726020830183613d80565b602083013563ffffffff919091166000908152600160205260409020541490565b61169d5750611731565b3063d045a0dc60c08301358360a08101356116bc6101008301836142e3565b6116cd610100890160e08a01613a18565b6116db6101208a018a6142e3565b6040518963ffffffff1660e01b81526004016116fd9796959493929190614340565b6000604051808303818588803b15801561171657600080fd5b505af115801561172a573d6000803e3d6000fd5b5050505050505b8061173b816143c7565b915050611633565b50336001600160a01b0316638e9e70996040518163ffffffff1660e01b8152600401600060405180830381865afa158015611782573d6000803e3d6000fd5b505050506040513d6000823e601f3d908101601f191682016040526117aa91908101906143e0565b6040517f8351eea7000000000000000000000000000000000000000000000000000000008152600401610e95919061378a565b6117e5612085565b610f61600f548261228a565b6117f96136c8565b604080518082019091526000808252602082015260008061183033604089013560608a013561182b60208c018c613d80565b612741565b9150915060008061184189846122b7565b909250905061186d61185660208b018b613d80565b8383611867368d90038d018d61444e565b8b612767565b60408051808201909152858152602080820186905282519298509096503391907f85496b760a4b7f8d66384b9df21b381f5d1b1e79f229a47aaf4c232edc2fe59a906118bb908d018d613d80565b6040805163ffffffff909216825260208201899052810187905260600160405180910390a350505050935093915050565b6000818152600e60205260408120610cb390612872565b61190b612085565b6040517fca5eb5e10000000000000000000000000000000000000000000000000000000081526001600160a01b0382811660048301527f0000000000000000000000000000000000000000000000000000000000000000169063ca5eb5e190602401600060405180830381600087803b15801561198757600080fd5b505af115801561199b573d6000803e3d6000fd5b5050505050565b3330146119db576040517f14d4a4e800000000000000000000000000000000000000000000000000000000815260040160405180910390fd5b610f1e87878787878787610f0f565b6119f2612085565b6002805473ffffffffffffffffffffffffffffffffffffffff19166001600160a01b0383169081179091556040519081527fd48d879cef83a1c0bdda516f27b13ddb1b3f8bbac1c9e1511bb2a659c24277609060200161136f565b83421115611a8a576040517f6279130200000000000000000000000000000000000000000000000000000000815260048101859052602401610e95565b60007f6e71edae12b1b97f4d1f60370fef10105fa2faae0126114a169c64845d6126c9888888611ad78c6001600160a01b03166000908152600c6020526040902080546001810190915590565b6040805160208101969096526001600160a01b0394851690860152929091166060840152608083015260a082015260c0810186905260e0016040516020818303038152906040528051906020012090506000611b328261287c565b90506000611b42828787876128c4565b9050896001600160a01b0316816001600160a01b031614611ba2576040517f4b800e460000000000000000000000000000000000000000000000000000000081526001600160a01b0380831660048301528b166024820152604401610e95565b611bad8a8a8a611d56565b50505050505050505050565b6000828152600d6020526040902060010154611bd481612100565b610f8a838361228a565b60006001600160a01b0383163014611c2d576040517fb5a7db920000000000000000000000000000000000000000000000000000000081526001600160a01b0384166004820152602401610e95565b6000610f46565b611c3c612085565b6001600160a01b038116611c7f576040517f1e4fbdf700000000000000000000000000000000000000000000000000000000815260006004820152602401610e95565b611c8881612541565b50565b600f546000908152600d602090815260408083206001600160a01b038516845290915281205460ff16610cb3565b6000602082018035906001908390611cd19086613d80565b63ffffffff1681526020810191909152604001600020541492915050565b60006001600160e01b031982167f7965db0b000000000000000000000000000000000000000000000000000000001480610cb357507f01ffc9a7000000000000000000000000000000000000000000000000000000006001600160e01b0319831614610cb3565b610ffd83838360016128f2565b600080611d6f856129f9565b915081905083811015611db8576040517f71c4efed0000000000000000000000000000000000000000000000000000000081526004810182905260248101859052604401610e95565b935093915050565b63ffffffff811660009081526001602052604081205480610cb3576040517ff6ff4fb700000000000000000000000000000000000000000000000000000000815263ffffffff84166004820152602401610e95565b6000611e27611e248787612a30565b90565b90506000611e5382611e41611e3c8a8a612a48565b612a6b565b611e4e60208d018d613d80565b612aa1565b90506028861115611f33576000611e90611e7360608c0160408d01614480565b611e8060208d018d613d80565b84611e8b8c8c612ac9565b612b14565b6040517f7cb590120000000000000000000000000000000000000000000000000000000081529091506001600160a01b037f00000000000000000000000000000000000000000000000000000000000000001690637cb5901290611eff9086908d90600090879060040161449d565b600060405180830381600087803b158015611f1957600080fd5b505af1158015611f2d573d6000803e3d6000fd5b50505050505b6001600160a01b038216887fefed6d3500546b29533b128a29e3a94d70788727f0507505ac12eaf2e578fd9c611f6c60208d018d613d80565b6040805163ffffffff9092168252602082018690520160405180910390a3505050505050505050565b6001600160a01b038381166000908152600660209081526040808320938616835292905220546000198114610f8a5781811015612017576040517ffb8f41b20000000000000000000000000000000000000000000000000000000081526001600160a01b03841660048201526024810182905260448101839052606401610e95565b610f8a848484840360006128f2565b6001600160a01b03831661205057604051634b637e8f60e11b815260006004820152602401610e95565b6001600160a01b03821661207a5760405163ec442f0560e01b815260006004820152602401610e95565b610ffd838383612b46565b6000546001600160a01b0316331461138c576040517f118cdaa7000000000000000000000000000000000000000000000000000000008152336004820152602401610e95565b6000806120d88484612c89565b90508015610f46576000848152600e602052604090206120f89084612d37565b509392505050565b611c888133612d4c565b63ffffffff8216600081815260016020908152604091829020849055815192835282018390527f238399d427b947898edb290f5ff0f9109849b1c3ba196a42e35f00c50a54b98b910160405180910390a15050565b6000306001600160a01b037f0000000000000000000000000000000000000000000000000000000000000000161480156121b857507f000000000000000000000000000000000000000000000000000000000000000046145b156121e257507f000000000000000000000000000000000000000000000000000000000000000090565b610fac604080517f8b73c3c69bb8fe3d512ecc4cf759cc79239f7b179b0ffacaa9a75d522b39400f60208201527f0000000000000000000000000000000000000000000000000000000000000000918101919091527f000000000000000000000000000000000000000000000000000000000000000060608201524660808201523060a082015260009060c00160405160208183030381529060405280519060200120905090565b6000806122978484612dba565b90508015610f46576000848152600e602052604090206120f89084612e41565b606080600061231485602001356122cd86612e56565b6122da60a08901896142e3565b8080601f016020809104026020016040519081016040528093929190818152602001838380828437600092019190915250612e8292505050565b909350905060008161232757600161232a565b60025b905061234a61233c6020880188613d80565b82610a8d60808a018a6142e3565b6004549093506001600160a01b0316156123eb57600480546040517f043a78eb0000000000000000000000000000000000000000000000000000000081526001600160a01b039091169163043a78eb916123a89188918891016144cf565b602060405180830381865afa1580156123c5573d6000803e3d6000fd5b505050506040513d601f19601f820116820180604052508101906123e991906144f4565b505b50509250929050565b60408051808201909152600080825260208201527f00000000000000000000000000000000000000000000000000000000000000006001600160a01b031663ddc28c586040518060a001604052808863ffffffff16815260200161245789611dc0565b8152602001878152602001868152602001851515815250306040518363ffffffff1660e01b815260040161248c929190614511565b6040805180830381865afa1580156124a8573d6000803e3d6000fd5b505050506040513d601f19601f820116820180604052508101906124cc91906145ba565b95945050505050565b6001600160a01b0382166124ff5760405163ec442f0560e01b815260006004820152602401610e95565b610f6160008383612b46565b6001600160a01b03821661253557604051634b637e8f60e11b815260006004820152602401610e95565b610f6182600083612b46565b600080546001600160a01b0383811673ffffffffffffffffffffffffffffffffffffffff19831681178455604051919092169283917f8be0079c531659141344cd1fd0a4f28419497f9722a3daafe3b4186f6b6457e09190a35050565b6060610fac7f0000000000000000000000000000000000000000000000000000000000000000600a612efc565b6060610fac7f0000000000000000000000000000000000000000000000000000000000000000600b612efc565b6000610f468383612fa7565b60005b81518110156126e557612636828281518110612625576126256142ac565b602002602001015160400151612715565b818181518110612648576126486142ac565b6020026020010151604001516003600084848151811061266a5761266a6142ac565b60200260200101516000015163ffffffff1663ffffffff16815260200190815260200160002060008484815181106126a4576126a46142ac565b60200260200101516020015161ffff1661ffff16815260200190815260200160002090816126d29190614624565b50806126dd816143c7565b915050612607565b507fbe4864a8e820971c0247f5992e2da559595f7bf076a21cb5928d443d2a13b6748160405161136f91906146e4565b600281015161ffff8116600314610f615781604051639a6d49cd60e01b8152600401610e95919061378a565b60008061274f858585611d63565b909250905061275e868361250b565b94509492505050565b61276f6136c8565b600061277e8460000151612fd1565b602085015190915015612798576127988460200151613012565b7f00000000000000000000000000000000000000000000000000000000000000006001600160a01b0316632637a450826040518060a001604052808b63ffffffff1681526020016127e88c611dc0565b81526020018a815260200189815260200160008960200151111515815250866040518463ffffffff1660e01b8152600401612824929190614511565b60806040518083038185885af1158015612842573d6000803e3d6000fd5b50505050506040513d601f19601f82011682018060405250810190612867919061476d565b979650505050505050565b6000610cb3825490565b6000610cb361288961215f565b836040517f19010000000000000000000000000000000000000000000000000000000000008152600281019290925260228201526042902090565b6000806000806128d68888888861310d565b9250925092506128e682826131dc565b50909695505050505050565b6001600160a01b038416612935576040517fe602df0500000000000000000000000000000000000000000000000000000000815260006004820152602401610e95565b6001600160a01b038316612978576040517f94280d6200000000000000000000000000000000000000000000000000000000815260006004820152602401610e95565b6001600160a01b0380851660009081526006602090815260408083209387168352929052208290558015610f8a57826001600160a01b0316846001600160a01b03167f8c5be1e5ebec7d5bd14f71427d1e84f3dd0314c0f7b2291e5b200ac8c7c3b925846040516129eb91815260200190565b60405180910390a350505050565b60007f0000000000000000000000000000000000000000000000000000000000000000612a2681846147b7565b610cb391906147d9565b6000612a3f6020828486614246565b610f46916147f0565b6000612a58602860208486614246565b612a619161480e565b60c01c9392505050565b6000610cb37f000000000000000000000000000000000000000000000000000000000000000067ffffffffffffffff84166147d9565b60006001600160a01b038416612ab75761dead93505b612ac184846124d5565b509092915050565b6060612ad88260288186614246565b8080601f016020809104026020016040519081016040528093929190818152602001838380828437600092019190915250929695505050505050565b606084848484604051602001612b2d949392919061483e565b6040516020818303038152906040529050949350505050565b6001600160a01b038316612b71578060076000828254612b669190614065565b90915550612bfc9050565b6001600160a01b03831660009081526005602052604090205481811015612bdd576040517fe450d38c0000000000000000000000000000000000000000000000000000000081526001600160a01b03851660048201526024810182905260448101839052606401610e95565b6001600160a01b03841660009081526005602052604090209082900390555b6001600160a01b038216612c1857600780548290039055612c37565b6001600160a01b03821660009081526005602052604090208054820190555b816001600160a01b0316836001600160a01b03167fddf252ad1be2c89b69c2b068fc378daa952ba7f163c4a11628f55a4df523b3ef83604051612c7c91815260200190565b60405180910390a3505050565b6000828152600d602090815260408083206001600160a01b038516845290915281205460ff16612d2f576000838152600d602090815260408083206001600160a01b03861684529091529020805460ff19166001179055612ce73390565b6001600160a01b0316826001600160a01b0316847f2f8788117e7eff1d82e926ec794901d17c78024a50270940304540a733656f0d60405160405180910390a4506001610cb3565b506000610cb3565b6000610f46836001600160a01b0384166132e0565b6000828152600d602090815260408083206001600160a01b038516845290915290205460ff16610f61576040517fe2517d3f0000000000000000000000000000000000000000000000000000000081526001600160a01b038216600482015260248101839052604401610e95565b6000828152600d602090815260408083206001600160a01b038516845290915281205460ff1615612d2f576000838152600d602090815260408083206001600160a01b0386168085529252808320805460ff1916905551339286917ff6391f5c32d9c69d2a47ea670b442974b53935d1edc7fd64eb21e047a839171b9190a4506001610cb3565b6000610f46836001600160a01b038416613327565b6000610cb37f0000000000000000000000000000000000000000000000000000000000000000836147b7565b8051606090151580612ecb578484604051602001612eb792919091825260c01b6001600160c01b031916602082015260280190565b604051602081830303815290604052612ef2565b84843385604051602001612ee2949392919061488c565b6040516020818303038152906040525b9150935093915050565b606060ff8314612f1657612f0f8361341a565b9050610cb3565b818054612f2290613f7e565b80601f0160208091040260200160405190810160405280929190818152602001828054612f4e90613f7e565b8015612f9b5780601f10612f7057610100808354040283529160200191612f9b565b820191906000526020600020905b815481529060010190602001808311612f7e57829003601f168201915b50505050509050610cb3565b6000826000018281548110612fbe57612fbe6142ac565b9060005260206000200154905092915050565b600081341461300e576040517f9f704120000000000000000000000000000000000000000000000000000000008152346004820152602401610e95565b5090565b60007f00000000000000000000000000000000000000000000000000000000000000006001600160a01b031663e4fe1d946040518163ffffffff1660e01b8152600401602060405180830381865afa158015613072573d6000803e3d6000fd5b505050506040513d601f19601f8201168201806040525081019061309691906148cd565b90506001600160a01b0381166130d8576040517f5373352a00000000000000000000000000000000000000000000000000000000815260040160405180910390fd5b610f616001600160a01b038216337f000000000000000000000000000000000000000000000000000000000000000085613459565b600080807f7fffffffffffffffffffffffffffffff5d576e7357a4501ddfe92f46681b20a084111561314857506000915060039050826131d2565b604080516000808252602082018084528a905260ff891692820192909252606081018790526080810186905260019060a0016020604051602081039080840390855afa15801561319c573d6000803e3d6000fd5b5050604051601f1901519150506001600160a01b0381166131c8575060009250600191508290506131d2565b9250600091508190505b9450945094915050565b60008260038111156131f0576131f06148ea565b036131f9575050565b600182600381111561320d5761320d6148ea565b03613244576040517ff645eedf00000000000000000000000000000000000000000000000000000000815260040160405180910390fd5b6002826003811115613258576132586148ea565b03613292576040517ffce698f700000000000000000000000000000000000000000000000000000000815260048101829052602401610e95565b60038260038111156132a6576132a66148ea565b03610f61576040517fd78bce0c00000000000000000000000000000000000000000000000000000000815260048101829052602401610e95565b6000818152600183016020526040812054612d2f57508154600181810184556000848152602080822090930184905584548482528286019093526040902091909155610cb3565b6000818152600183016020526040812054801561341057600061334b600183614078565b855490915060009061335f90600190614078565b90508082146133c457600086600001828154811061337f5761337f6142ac565b90600052602060002001549050808760000184815481106133a2576133a26142ac565b6000918252602080832090910192909255918252600188019052604090208390555b85548690806133d5576133d5614900565b600190038181906000526020600020016000905590558560010160008681526020019081526020016000206000905560019350505050610cb3565b6000915050610cb3565b60606000613427836134e1565b604080516020808252818301909252919250600091906020820181803683375050509182525060208101929092525090565b604080516001600160a01b0385811660248301528416604482015260648082018490528251808303909101815260849091019091526020810180517bffffffffffffffffffffffffffffffffffffffffffffffffffffffff167f23b872dd00000000000000000000000000000000000000000000000000000000179052610f8a908590613522565b600060ff8216601f811115610cb3576040517fb3512b0c00000000000000000000000000000000000000000000000000000000815260040160405180910390fd5b60006135376001600160a01b0384168361359e565b9050805160001415801561355c57508080602001905181019061355a91906144f4565b155b15610ffd576040517f5274afe70000000000000000000000000000000000000000000000000000000081526001600160a01b0384166004820152602401610e95565b6060610f468383600084600080856001600160a01b031684866040516135c49190614916565b60006040518083038185875af1925050503d8060008114613601576040519150601f19603f3d011682016040523d82523d6000602084013e613606565b606091505b509150915061105f8683836060826136265761362182613686565b610f46565b815115801561363d57506001600160a01b0384163b155b1561367f576040517f9996b3150000000000000000000000000000000000000000000000000000000081526001600160a01b0385166004820152602401610e95565b5080610f46565b8051156136965780518082602001fd5b6040517f1425ea4200000000000000000000000000000000000000000000000000000000815260040160405180910390fd5b604051806060016040528060008019168152602001600067ffffffffffffffff16815260200161370b604051806040016040528060008152602001600081525090565b905290565b60006020828403121561372257600080fd5b81356001600160e01b031981168114610f4657600080fd5b60005b8381101561375557818101518382015260200161373d565b50506000910152565b6000815180845261377681602086016020860161373a565b601f01601f19169290920160200192915050565b602081526000610f46602083018461375e565b6001600160a01b0381168114611c8857600080fd5b600080604083850312156137c557600080fd5b82356137d08161379d565b946020939093013593505050565b600060e082840312156137f057600080fd5b50919050565b60006020828403121561380857600080fd5b813567ffffffffffffffff81111561381f57600080fd5b6113b9848285016137de565b8351815260208085015190820152600060a08201604060a08185015281865180845260c08601915060c08160051b8701019350602080890160005b838110156138a55788870360bf190185528151805188528301518388018790526138928789018261375e565b9750509382019390820190600101613866565b505087516060880152505050602085015160808501525090506113b9565b6000606082840312156137f057600080fd5b60008083601f8401126138e757600080fd5b50813567ffffffffffffffff8111156138ff57600080fd5b60208301915083602082850101111561391757600080fd5b9250929050565b600080600080600080600060e0888a03121561393957600080fd5b61394389896138c3565b965060608801359550608088013567ffffffffffffffff8082111561396757600080fd5b6139738b838c016138d5565b909750955060a08a013591506139888261379d565b90935060c0890135908082111561399e57600080fd5b506139ab8a828b016138d5565b989b979a50959850939692959293505050565b6000806000606084860312156139d357600080fd5b83356139de8161379d565b925060208401356139ee8161379d565b929592945050506040919091013590565b600060208284031215613a1157600080fd5b5035919050565b600060208284031215613a2a57600080fd5b8135610f468161379d565b60008060408385031215613a4857600080fd5b823591506020830135613a5a8161379d565b809150509250929050565b803563ffffffff81168114613a7957600080fd5b919050565b60008060408385031215613a9157600080fd5b6137d083613a65565b8015158114611c8857600080fd5b60008060408385031215613abb57600080fd5b823567ffffffffffffffff811115613ad257600080fd5b613ade858286016137de565b9250506020830135613a5a81613a9a565b815181526020808301519082015260408101610cb3565b803561ffff81168114613a7957600080fd5b60008060408385031215613b2b57600080fd5b613b3483613a65565b9150613b4260208401613b06565b90509250929050565b600080600080600060808688031215613b6357600080fd5b8535613b6e8161379d565b94506020860135613b7e8161379d565b935060408601359250606086013567ffffffffffffffff811115613ba157600080fd5b613bad888289016138d5565b969995985093965092949392505050565b60008060008060a08587031215613bd457600080fd5b613bde86866138c3565b9350606085013567ffffffffffffffff811115613bfa57600080fd5b613c06878288016138d5565b9094509250506080850135613c1a8161379d565b939692955090935050565b7fff00000000000000000000000000000000000000000000000000000000000000881681526000602060e081840152613c6160e084018a61375e565b8381036040850152613c73818a61375e565b606085018990526001600160a01b038816608086015260a0850187905284810360c0860152855180825283870192509083019060005b81811015613cc557835183529284019291840191600101613ca9565b50909c9b505050505050505050505050565b60008060408385031215613cea57600080fd5b50508035926020909101359150565b60008083601f840112613d0b57600080fd5b50813567ffffffffffffffff811115613d2357600080fd5b6020830191508360208260051b850101111561391757600080fd5b60008060208385031215613d5157600080fd5b823567ffffffffffffffff811115613d6857600080fd5b613d7485828601613cf9565b90969095509350505050565b600060208284031215613d9257600080fd5b610f4682613a65565b60008060008060608587031215613db157600080fd5b613dba85613a65565b9350613dc860208601613b06565b9250604085013567ffffffffffffffff811115613de457600080fd5b613df0878288016138d5565b95989497509550505050565b60008060008385036080811215613e1257600080fd5b843567ffffffffffffffff811115613e2957600080fd5b613e35878288016137de565b9450506040601f1982011215613e4a57600080fd5b506020840191506060840135613e5f8161379d565b809150509250925092565b600060c0820190508351825267ffffffffffffffff60208501511660208301526040840151613ea6604084018280518252602090810151910152565b5082516080830152602083015160a0830152610f46565b600080600080600080600060e0888a031215613ed857600080fd5b8735613ee38161379d565b96506020880135613ef38161379d565b95506040880135945060608801359350608088013560ff81168114613f1757600080fd5b9699959850939692959460a0840135945060c09093013592915050565b60008060408385031215613f4757600080fd5b8235613f528161379d565b91506020830135613a5a8161379d565b600060608284031215613f7457600080fd5b610f4683836138c3565b600181811c90821680613f9257607f821691505b6020821081036137f057634e487b7160e01b600052602260045260246000fd5b634e487b7160e01b600052604160045260246000fd5b81835281816020850137506000828201602090810191909152601f909101601f19169091010190565b60006001600160a01b03808916835280881660208401525085604083015284606083015260a0608083015261402a60a083018486613fc8565b98975050505050505050565b60006020828403121561404857600080fd5b5051919050565b634e487b7160e01b600052601160045260246000fd5b80820180821115610cb357610cb361404f565b81810381811115610cb357610cb361404f565b6040516060810167ffffffffffffffff811182821017156140ae576140ae613fb2565b60405290565b6040805190810167ffffffffffffffff811182821017156140ae576140ae613fb2565b604051601f8201601f1916810167ffffffffffffffff8111828210171561410057614100613fb2565b604052919050565b600067ffffffffffffffff82111561412257614122613fb2565b50601f01601f191660200190565b600067ffffffffffffffff8084111561414b5761414b613fb2565b8360051b602061415c8183016140d7565b86815291850191818101903684111561417457600080fd5b865b8481101561423a5780358681111561418e5760008081fd5b880160603682900312156141a25760008081fd5b6141aa61408b565b6141b382613a65565b81526141c0868301613b06565b86820152604080830135898111156141d85760008081fd5b929092019136601f8401126141ed5760008081fd5b82356142006141fb82614108565b6140d7565b81815236898387010111156142155760008081fd5b818986018a830137600091810189019190915290820152845250918301918301614176565b50979650505050505050565b6000808585111561425657600080fd5b8386111561426357600080fd5b5050820193919092039150565b6000845161428281846020890161373a565b8201838582376000930192835250909392505050565b6020815260006113b9602083018486613fc8565b634e487b7160e01b600052603260045260246000fd5b6000823561013e198336030181126142d957600080fd5b9190910192915050565b6000808335601e198436030181126142fa57600080fd5b83018035915067ffffffffffffffff82111561431557600080fd5b60200191503681900382131561391757600080fd5b67ffffffffffffffff81168114611c8857600080fd5b63ffffffff61434e89613a65565b168152602088013560208201526000604089013561436b8161432a565b67ffffffffffffffff811660408401525087606083015260e0608083015261439760e083018789613fc8565b6001600160a01b03861660a084015282810360c08401526143b9818587613fc8565b9a9950505050505050505050565b6000600182016143d9576143d961404f565b5060010190565b6000602082840312156143f257600080fd5b815167ffffffffffffffff81111561440957600080fd5b8201601f8101841361441a57600080fd5b80516144286141fb82614108565b81815285602083850101111561443d57600080fd5b6124cc82602083016020860161373a565b60006040828403121561446057600080fd5b6144686140b4565b82358152602083013560208201528091505092915050565b60006020828403121561449257600080fd5b8135610f468161432a565b6001600160a01b038516815283602082015261ffff8316604082015260806060820152600061105f608083018461375e565b6040815260006144e2604083018561375e565b82810360208401526124cc818561375e565b60006020828403121561450657600080fd5b8151610f4681613a9a565b6040815263ffffffff8351166040820152602083015160608201526000604084015160a0608084015261454760e084018261375e565b90506060850151603f198483030160a0850152614564828261375e565b60809690960151151560c08501525050506001600160a01b039190911660209091015290565b60006040828403121561459c57600080fd5b6145a46140b4565b9050815181526020820151602082015292915050565b6000604082840312156145cc57600080fd5b610f46838361458a565b601f821115610ffd57600081815260208120601f850160051c810160208610156145fd5750805b601f850160051c820191505b8181101561461c57828155600101614609565b505050505050565b815167ffffffffffffffff81111561463e5761463e613fb2565b6146528161464c8454613f7e565b846145d6565b602080601f831160018114614687576000841561466f5750858301515b600019600386901b1c1916600185901b17855561461c565b600085815260208120601f198616915b828110156146b657888601518255948401946001909101908401614697565b50858210156146d45787850151600019600388901b60f8161c191681555b5050505050600190811b01905550565b60006020808301818452808551808352604092508286019150828160051b87010184880160005b8381101561475f57888303603f190185528151805163ffffffff1684528781015161ffff1688850152860151606087850181905261474b8186018361375e565b96890196945050509086019060010161470b565b509098975050505050505050565b60006080828403121561477f57600080fd5b61478761408b565b8251815260208301516147998161432a565b60208201526147ab846040850161458a565b60408201529392505050565b6000826147d457634e487b7160e01b600052601260045260246000fd5b500490565b8082028115828204841417610cb357610cb361404f565b80356020831015610cb357600019602084900360031b1b1692915050565b6001600160c01b031981358181169160088510156148365780818660080360031b1b83161692505b505092915050565b6001600160c01b03198560c01b1681526001600160e01b03198460e01b16600882015282600c8201526000825161487c81602c85016020870161373a565b91909101602c0195945050505050565b8481526001600160c01b03198460c01b166020820152826028820152600082516148bd81604885016020870161373a565b9190910160480195945050505050565b6000602082840312156148df57600080fd5b8151610f468161379d565b634e487b7160e01b600052602160045260246000fd5b634e487b7160e01b600052603160045260246000fd5b600082516142d981846020870161373a56fea26469706673582212201d08fc3af953afeaacf9dac1204aa75d01e513916a2b6abba4f6873f8e5850f064736f6c63430008140033",
  "linkReferences": {},
  "deployedLinkReferences": {}
}