{
  "_format": "hh-sol-artifact-1",
  "contractName": "ZaiStablecoin",
  "sourceName": "contracts/core/ZaiStablecoin.sol",
  "abi": [
    {
      "inputs": [
        {
          "internalType": "address",
          "name": "_layerZeroEndpoint",
          "type": "address"
        },
        {
          "internalType": "address",
          "name": "_delegate",
          "type": "address"
        }
      ],
      "stateMutability": "nonpayable",
      "type": "constructor"
    },
    {
      "inputs": [],
      "name": "AccessControlBadConfirmation",
      "type": "error"
    },
    {
      "inputs": [
        {
          "internalType": "address",
          "name": "account",
          "type": "address"
        },
        {
          "internalType": "bytes32",
          "name": "neededRole",
          "type": "bytes32"
        }
      ],
      "name": "AccessControlUnauthorizedAccount",
      "type": "error"
    },
    {
      "inputs": [
        {
          "internalType": "address",
          "name": "target",
          "type": "address"
        }
      ],
      "name": "AddressEmptyCode",
      "type": "error"
    },
    {
      "inputs": [
        {
          "internalType": "address",
          "name": "account",
          "type": "address"
        }
      ],
      "name": "AddressInsufficientBalance",
      "type": "error"
    },
    {
      "inputs": [],
      "name": "ECDSAInvalidSignature",
      "type": "error"
    },
    {
      "inputs": [
        {
          "internalType": "uint256",
          "name": "length",
          "type": "uint256"
        }
      ],
      "name": "ECDSAInvalidSignatureLength",
      "type": "error"
    },
    {
      "inputs": [
        {
          "internalType": "bytes32",
          "name": "s",
          "type": "bytes32"
        }
      ],
      "name": "ECDSAInvalidSignatureS",
      "type": "error"
    },
    {
      "inputs": [
        {
          "internalType": "address",
          "name": "spender",
          "type": "address"
        },
        {
          "internalType": "uint256",
          "name": "allowance",
          "type": "uint256"
        },
        {
          "internalType": "uint256",
          "name": "needed",
          "type": "uint256"
        }
      ],
      "name": "ERC20InsufficientAllowance",
      "type": "error"
    },
    {
      "inputs": [
        {
          "internalType": "address",
          "name": "sender",
          "type": "address"
        },
        {
          "internalType": "uint256",
          "name": "balance",
          "type": "uint256"
        },
        {
          "internalType": "uint256",
          "name": "needed",
          "type": "uint256"
        }
      ],
      "name": "ERC20InsufficientBalance",
      "type": "error"
    },
    {
      "inputs": [
        {
          "internalType": "address",
          "name": "approver",
          "type": "address"
        }
      ],
      "name": "ERC20InvalidApprover",
      "type": "error"
    },
    {
      "inputs": [
        {
          "internalType": "address",
          "name": "receiver",
          "type": "address"
        }
      ],
      "name": "ERC20InvalidReceiver",
      "type": "error"
    },
    {
      "inputs": [
        {
          "internalType": "address",
          "name": "sender",
          "type": "address"
        }
      ],
      "name": "ERC20InvalidSender",
      "type": "error"
    },
    {
      "inputs": [
        {
          "internalType": "address",
          "name": "spender",
          "type": "address"
        }
      ],
      "name": "ERC20InvalidSpender",
      "type": "error"
    },
    {
      "inputs": [
        {
          "internalType": "uint256",
          "name": "deadline",
          "type": "uint256"
        }
      ],
      "name": "ERC2612ExpiredSignature",
      "type": "error"
    },
    {
      "inputs": [
        {
          "internalType": "address",
          "name": "signer",
          "type": "address"
        },
        {
          "internalType": "address",
          "name": "owner",
          "type": "address"
        }
      ],
      "name": "ERC2612InvalidSigner",
      "type": "error"
    },
    {
      "inputs": [
        {
          "internalType": "uint256",
          "name": "maxLoan",
          "type": "uint256"
        }
      ],
      "name": "ERC3156ExceededMaxLoan",
      "type": "error"
    },
    {
      "inputs": [
        {
          "internalType": "address",
          "name": "receiver",
          "type": "address"
        }
      ],
      "name": "ERC3156InvalidReceiver",
      "type": "error"
    },
    {
      "inputs": [
        {
          "internalType": "address",
          "name": "token",
          "type": "address"
        }
      ],
      "name": "ERC3156UnsupportedToken",
      "type": "error"
    },
    {
      "inputs": [],
      "name": "FailedInnerCall",
      "type": "error"
    },
    {
      "inputs": [
        {
          "internalType": "address",
          "name": "account",
          "type": "address"
        },
        {
          "internalType": "uint256",
          "name": "currentNonce",
          "type": "uint256"
        }
      ],
      "name": "InvalidAccountNonce",
      "type": "error"
    },
    {
      "inputs": [],
      "name": "InvalidDelegate",
      "type": "error"
    },
    {
      "inputs": [],
      "name": "InvalidEndpointCall",
      "type": "error"
    },
    {
      "inputs": [],
      "name": "InvalidLocalDecimals",
      "type": "error"
    },
    {
      "inputs": [
        {
          "internalType": "bytes",
          "name": "options",
          "type": "bytes"
        }
      ],
      "name": "InvalidOptions",
      "type": "error"
    },
    {
      "inputs": [],
      "name": "InvalidShortString",
      "type": "error"
    },
    {
      "inputs": [],
      "name": "LzTokenUnavailable",
      "type": "error"
    },
    {
      "inputs": [
        {
          "internalType": "uint32",
          "name": "eid",
          "type": "uint32"
        }
      ],
      "name": "NoPeer",
      "type": "error"
    },
    {
      "inputs": [
        {
          "internalType": "uint256",
          "name": "msgValue",
          "type": "uint256"
        }
      ],
      "name": "NotEnoughNative",
      "type": "error"
    },
    {
      "inputs": [
        {
          "internalType": "address",
          "name": "addr",
          "type": "address"
        }
      ],
      "name": "OnlyEndpoint",
      "type": "error"
    },
    {
      "inputs": [
        {
          "internalType": "uint32",
          "name": "eid",
          "type": "uint32"
        },
        {
          "internalType": "bytes32",
          "name": "sender",
          "type": "bytes32"
        }
      ],
      "name": "OnlyPeer",
      "type": "error"
    },
    {
      "inputs": [],
      "name": "OnlySelf",
      "type": "error"
    },
    {
      "inputs": [
        {
          "internalType": "address",
          "name": "owner",
          "type": "address"
        }
      ],
      "name": "OwnableInvalidOwner",
      "type": "error"
    },
    {
      "inputs": [
        {
          "internalType": "address",
          "name": "account",
          "type": "address"
        }
      ],
      "name": "OwnableUnauthorizedAccount",
      "type": "error"
    },
    {
      "inputs": [
        {
          "internalType": "address",
          "name": "token",
          "type": "address"
        }
      ],
      "name": "SafeERC20FailedOperation",
      "type": "error"
    },
    {
      "inputs": [
        {
          "internalType": "bytes",
          "name": "result",
          "type": "bytes"
        }
      ],
      "name": "SimulationResult",
      "type": "error"
    },
    {
      "inputs": [
        {
          "internalType": "uint256",
          "name": "amountLD",
          "type": "uint256"
        },
        {
          "internalType": "uint256",
          "name": "minAmountLD",
          "type": "uint256"
        }
      ],
      "name": "SlippageExceeded",
      "type": "error"
    },
    {
      "inputs": [
        {
          "internalType": "string",
          "name": "str",
          "type": "string"
        }
      ],
      "name": "StringTooLong",
      "type": "error"
    },
    {
      "anonymous": false,
      "inputs": [
        {
          "indexed": true,
          "internalType": "address",
          "name": "owner",
          "type": "address"
        },
        {
          "indexed": true,
          "internalType": "address",
          "name": "spender",
          "type": "address"
        },
        {
          "indexed": false,
          "internalType": "uint256",
          "name": "value",
          "type": "uint256"
        }
      ],
      "name": "Approval",
      "type": "event"
    },
    {
      "anonymous": false,
      "inputs": [],
      "name": "EIP712DomainChanged",
      "type": "event"
    },
    {
      "anonymous": false,
      "inputs": [
        {
          "components": [
            {
              "internalType": "uint32",
              "name": "eid",
              "type": "uint32"
            },
            {
              "internalType": "uint16",
              "name": "msgType",
              "type": "uint16"
            },
            {
              "internalType": "bytes",
              "name": "options",
              "type": "bytes"
            }
          ],
          "indexed": false,
          "internalType": "struct EnforcedOptionParam[]",
          "name": "_enforcedOptions",
          "type": "tuple[]"
        }
      ],
      "name": "EnforcedOptionSet",
      "type": "event"
    },
    {
      "anonymous": false,
      "inputs": [
        {
          "indexed": false,
          "internalType": "address",
          "name": "inspector",
          "type": "address"
        }
      ],
      "name": "MsgInspectorSet",
      "type": "event"
    },
    {
      "anonymous": false,
      "inputs": [
        {
          "indexed": true,
          "internalType": "bytes32",
          "name": "guid",
          "type": "bytes32"
        },
        {
          "indexed": false,
          "internalType": "uint32",
          "name": "srcEid",
          "type": "uint32"
        },
        {
          "indexed": true,
          "internalType": "address",
          "name": "toAddress",
          "type": "address"
        },
        {
          "indexed": false,
          "internalType": "uint256",
          "name": "amountReceivedLD",
          "type": "uint256"
        }
      ],
      "name": "OFTReceived",
      "type": "event"
    },
    {
      "anonymous": false,
      "inputs": [
        {
          "indexed": true,
          "internalType": "bytes32",
          "name": "guid",
          "type": "bytes32"
        },
        {
          "indexed": false,
          "internalType": "uint32",
          "name": "dstEid",
          "type": "uint32"
        },
        {
          "indexed": true,
          "internalType": "address",
          "name": "fromAddress",
          "type": "address"
        },
        {
          "indexed": false,
          "internalType": "uint256",
          "name": "amountSentLD",
          "type": "uint256"
        },
        {
          "indexed": false,
          "internalType": "uint256",
          "name": "amountReceivedLD",
          "type": "uint256"
        }
      ],
      "name": "OFTSent",
      "type": "event"
    },
    {
      "anonymous": false,
      "inputs": [
        {
          "indexed": true,
          "internalType": "address",
          "name": "previousOwner",
          "type": "address"
        },
        {
          "indexed": true,
          "internalType": "address",
          "name": "newOwner",
          "type": "address"
        }
      ],
      "name": "OwnershipTransferred",
      "type": "event"
    },
    {
      "anonymous": false,
      "inputs": [
        {
          "indexed": false,
          "internalType": "uint32",
          "name": "eid",
          "type": "uint32"
        },
        {
          "indexed": false,
          "internalType": "bytes32",
          "name": "peer",
          "type": "bytes32"
        }
      ],
      "name": "PeerSet",
      "type": "event"
    },
    {
      "anonymous": false,
      "inputs": [
        {
          "indexed": false,
          "internalType": "address",
          "name": "preCrimeAddress",
          "type": "address"
        }
      ],
      "name": "PreCrimeSet",
      "type": "event"
    },
    {
      "anonymous": false,
      "inputs": [
        {
          "indexed": true,
          "internalType": "bytes32",
          "name": "role",
          "type": "bytes32"
        },
        {
          "indexed": true,
          "internalType": "bytes32",
          "name": "previousAdminRole",
          "type": "bytes32"
        },
        {
          "indexed": true,
          "internalType": "bytes32",
          "name": "newAdminRole",
          "type": "bytes32"
        }
      ],
      "name": "RoleAdminChanged",
      "type": "event"
    },
    {
      "anonymous": false,
      "inputs": [
        {
          "indexed": true,
          "internalType": "bytes32",
          "name": "role",
          "type": "bytes32"
        },
        {
          "indexed": true,
          "internalType": "address",
          "name": "account",
          "type": "address"
        },
        {
          "indexed": true,
          "internalType": "address",
          "name": "sender",
          "type": "address"
        }
      ],
      "name": "RoleGranted",
      "type": "event"
    },
    {
      "anonymous": false,
      "inputs": [
        {
          "indexed": true,
          "internalType": "bytes32",
          "name": "role",
          "type": "bytes32"
        },
        {
          "indexed": true,
          "internalType": "address",
          "name": "account",
          "type": "address"
        },
        {
          "indexed": true,
          "internalType": "address",
          "name": "sender",
          "type": "address"
        }
      ],
      "name": "RoleRevoked",
      "type": "event"
    },
    {
      "anonymous": false,
      "inputs": [
        {
          "indexed": true,
          "internalType": "address",
          "name": "from",
          "type": "address"
        },
        {
          "indexed": true,
          "internalType": "address",
          "name": "to",
          "type": "address"
        },
        {
          "indexed": false,
          "internalType": "uint256",
          "name": "value",
          "type": "uint256"
        }
      ],
      "name": "Transfer",
      "type": "event"
    },
    {
      "inputs": [],
      "name": "DEFAULT_ADMIN_ROLE",
      "outputs": [
        {
          "internalType": "bytes32",
          "name": "",
          "type": "bytes32"
        }
      ],
      "stateMutability": "view",
      "type": "function"
    },
    {
      "inputs": [],
      "name": "DOMAIN_SEPARATOR",
      "outputs": [
        {
          "internalType": "bytes32",
          "name": "",
          "type": "bytes32"
        }
      ],
      "stateMutability": "view",
      "type": "function"
    },
    {
      "inputs": [],
      "name": "MANAGER_ROLE",
      "outputs": [
        {
          "internalType": "bytes32",
          "name": "",
          "type": "bytes32"
        }
      ],
      "stateMutability": "view",
      "type": "function"
    },
    {
      "inputs": [],
      "name": "SEND",
      "outputs": [
        {
          "internalType": "uint16",
          "name": "",
          "type": "uint16"
        }
      ],
      "stateMutability": "view",
      "type": "function"
    },
    {
      "inputs": [],
      "name": "SEND_AND_CALL",
      "outputs": [
        {
          "internalType": "uint16",
          "name": "",
          "type": "uint16"
        }
      ],
      "stateMutability": "view",
      "type": "function"
    },
    {
      "inputs": [
        {
          "components": [
            {
              "internalType": "uint32",
              "name": "srcEid",
              "type": "uint32"
            },
            {
              "internalType": "bytes32",
              "name": "sender",
              "type": "bytes32"
            },
            {
              "internalType": "uint64",
              "name": "nonce",
              "type": "uint64"
            }
          ],
          "internalType": "struct Origin",
          "name": "origin",
          "type": "tuple"
        }
      ],
      "name": "allowInitializePath",
      "outputs": [
        {
          "internalType": "bool",
          "name": "",
          "type": "bool"
        }
      ],
      "stateMutability": "view",
      "type": "function"
    },
    {
      "inputs": [
        {
          "internalType": "address",
          "name": "owner",
          "type": "address"
        },
        {
          "internalType": "address",
          "name": "spender",
          "type": "address"
        }
      ],
      "name": "allowance",
      "outputs": [
        {
          "internalType": "uint256",
          "name": "",
          "type": "uint256"
        }
      ],
      "stateMutability": "view",
      "type": "function"
    },
    {
      "inputs": [],
      "name": "approvalRequired",
      "outputs": [
        {
          "internalType": "bool",
          "name": "",
          "type": "bool"
        }
      ],
      "stateMutability": "pure",
      "type": "function"
    },
    {
      "inputs": [
        {
          "internalType": "address",
          "name": "spender",
          "type": "address"
        },
        {
          "internalType": "uint256",
          "name": "value",
          "type": "uint256"
        }
      ],
      "name": "approve",
      "outputs": [
        {
          "internalType": "bool",
          "name": "",
          "type": "bool"
        }
      ],
      "stateMutability": "nonpayable",
      "type": "function"
    },
    {
      "inputs": [
        {
          "internalType": "address",
          "name": "account",
          "type": "address"
        }
      ],
      "name": "balanceOf",
      "outputs": [
        {
          "internalType": "uint256",
          "name": "",
          "type": "uint256"
        }
      ],
      "stateMutability": "view",
      "type": "function"
    },
    {
      "inputs": [
        {
          "internalType": "address",
          "name": "_account",
          "type": "address"
        },
        {
          "internalType": "uint256",
          "name": "_amount",
          "type": "uint256"
        }
      ],
      "name": "burn",
      "outputs": [],
      "stateMutability": "nonpayable",
      "type": "function"
    },
    {
      "inputs": [
        {
          "internalType": "uint32",
          "name": "_eid",
          "type": "uint32"
        },
        {
          "internalType": "uint16",
          "name": "_msgType",
          "type": "uint16"
        },
        {
          "internalType": "bytes",
          "name": "_extraOptions",
          "type": "bytes"
        }
      ],
      "name": "combineOptions",
      "outputs": [
        {
          "internalType": "bytes",
          "name": "",
          "type": "bytes"
        }
      ],
      "stateMutability": "view",
      "type": "function"
    },
    {
      "inputs": [],
      "name": "decimalConversionRate",
      "outputs": [
        {
          "internalType": "uint256",
          "name": "",
          "type": "uint256"
        }
      ],
      "stateMutability": "view",
      "type": "function"
    },
    {
      "inputs": [],
      "name": "decimals",
      "outputs": [
        {
          "internalType": "uint8",
          "name": "",
          "type": "uint8"
        }
      ],
      "stateMutability": "view",
      "type": "function"
    },
    {
      "inputs": [],
      "name": "eip712Domain",
      "outputs": [
        {
          "internalType": "bytes1",
          "name": "fields",
          "type": "bytes1"
        },
        {
          "internalType": "string",
          "name": "name",
          "type": "string"
        },
        {
          "internalType": "string",
          "name": "version",
          "type": "string"
        },
        {
          "internalType": "uint256",
          "name": "chainId",
          "type": "uint256"
        },
        {
          "internalType": "address",
          "name": "verifyingContract",
          "type": "address"
        },
        {
          "internalType": "bytes32",
          "name": "salt",
          "type": "bytes32"
        },
        {
          "internalType": "uint256[]",
          "name": "extensions",
          "type": "uint256[]"
        }
      ],
      "stateMutability": "view",
      "type": "function"
    },
    {
      "inputs": [],
      "name": "endpoint",
      "outputs": [
        {
          "internalType": "contract ILayerZeroEndpointV2",
          "name": "",
          "type": "address"
        }
      ],
      "stateMutability": "view",
      "type": "function"
    },
    {
      "inputs": [
        {
          "internalType": "uint32",
          "name": "eid",
          "type": "uint32"
        },
        {
          "internalType": "uint16",
          "name": "msgType",
          "type": "uint16"
        }
      ],
      "name": "enforcedOptions",
      "outputs": [
        {
          "internalType": "bytes",
          "name": "enforcedOption",
          "type": "bytes"
        }
      ],
      "stateMutability": "view",
      "type": "function"
    },
    {
      "inputs": [
        {
          "internalType": "address",
          "name": "token",
          "type": "address"
        },
        {
          "internalType": "uint256",
          "name": "value",
          "type": "uint256"
        }
      ],
      "name": "flashFee",
      "outputs": [
        {
          "internalType": "uint256",
          "name": "",
          "type": "uint256"
        }
      ],
      "stateMutability": "view",
      "type": "function"
    },
    {
      "inputs": [
        {
          "internalType": "contract IERC3156FlashBorrower",
          "name": "receiver",
          "type": "address"
        },
        {
          "internalType": "address",
          "name": "token",
          "type": "address"
        },
        {
          "internalType": "uint256",
          "name": "value",
          "type": "uint256"
        },
        {
          "internalType": "bytes",
          "name": "data",
          "type": "bytes"
        }
      ],
      "name": "flashLoan",
      "outputs": [
        {
          "internalType": "bool",
          "name": "",
          "type": "bool"
        }
      ],
      "stateMutability": "nonpayable",
      "type": "function"
    },
    {
      "inputs": [
        {
          "internalType": "bytes32",
          "name": "role",
          "type": "bytes32"
        }
      ],
      "name": "getRoleAdmin",
      "outputs": [
        {
          "internalType": "bytes32",
          "name": "",
          "type": "bytes32"
        }
      ],
      "stateMutability": "view",
      "type": "function"
    },
    {
      "inputs": [
        {
          "internalType": "bytes32",
          "name": "role",
          "type": "bytes32"
        },
        {
          "internalType": "uint256",
          "name": "index",
          "type": "uint256"
        }
      ],
      "name": "getRoleMember",
      "outputs": [
        {
          "internalType": "address",
          "name": "",
          "type": "address"
        }
      ],
      "stateMutability": "view",
      "type": "function"
    },
    {
      "inputs": [
        {
          "internalType": "bytes32",
          "name": "role",
          "type": "bytes32"
        }
      ],
      "name": "getRoleMemberCount",
      "outputs": [
        {
          "internalType": "uint256",
          "name": "",
          "type": "uint256"
        }
      ],
      "stateMutability": "view",
      "type": "function"
    },
    {
      "inputs": [
        {
          "internalType": "address",
          "name": "_account",
          "type": "address"
        }
      ],
      "name": "grantManagerRole",
      "outputs": [],
      "stateMutability": "nonpayable",
      "type": "function"
    },
    {
      "inputs": [
        {
          "internalType": "bytes32",
          "name": "role",
          "type": "bytes32"
        },
        {
          "internalType": "address",
          "name": "account",
          "type": "address"
        }
      ],
      "name": "grantRole",
      "outputs": [],
      "stateMutability": "nonpayable",
      "type": "function"
    },
    {
      "inputs": [
        {
          "internalType": "bytes32",
          "name": "role",
          "type": "bytes32"
        },
        {
          "internalType": "address",
          "name": "account",
          "type": "address"
        }
      ],
      "name": "hasRole",
      "outputs": [
        {
          "internalType": "bool",
          "name": "",
          "type": "bool"
        }
      ],
      "stateMutability": "view",
      "type": "function"
    },
    {
      "inputs": [
        {
          "components": [
            {
              "internalType": "uint32",
              "name": "srcEid",
              "type": "uint32"
            },
            {
              "internalType": "bytes32",
              "name": "sender",
              "type": "bytes32"
            },
            {
              "internalType": "uint64",
              "name": "nonce",
              "type": "uint64"
            }
          ],
          "internalType": "struct Origin",
          "name": "",
          "type": "tuple"
        },
        {
          "internalType": "bytes",
          "name": "",
          "type": "bytes"
        },
        {
          "internalType": "address",
          "name": "_sender",
          "type": "address"
        }
      ],
      "name": "isComposeMsgSender",
      "outputs": [
        {
          "internalType": "bool",
          "name": "",
          "type": "bool"
        }
      ],
      "stateMutability": "view",
      "type": "function"
    },
    {
      "inputs": [
        {
          "internalType": "address",
          "name": "_account",
          "type": "address"
        }
      ],
      "name": "isManager",
      "outputs": [
        {
          "internalType": "bool",
          "name": "what",
          "type": "bool"
        }
      ],
      "stateMutability": "view",
      "type": "function"
    },
    {
      "inputs": [
        {
          "internalType": "uint32",
          "name": "_eid",
          "type": "uint32"
        },
        {
          "internalType": "bytes32",
          "name": "_peer",
          "type": "bytes32"
        }
      ],
      "name": "isPeer",
      "outputs": [
        {
          "internalType": "bool",
          "name": "",
          "type": "bool"
        }
      ],
      "stateMutability": "view",
      "type": "function"
    },
    {
      "inputs": [
        {
          "components": [
            {
              "internalType": "uint32",
              "name": "srcEid",
              "type": "uint32"
            },
            {
              "internalType": "bytes32",
              "name": "sender",
              "type": "bytes32"
            },
            {
              "internalType": "uint64",
              "name": "nonce",
              "type": "uint64"
            }
          ],
          "internalType": "struct Origin",
          "name": "_origin",
          "type": "tuple"
        },
        {
          "internalType": "bytes32",
          "name": "_guid",
          "type": "bytes32"
        },
        {
          "internalType": "bytes",
          "name": "_message",
          "type": "bytes"
        },
        {
          "internalType": "address",
          "name": "_executor",
          "type": "address"
        },
        {
          "internalType": "bytes",
          "name": "_extraData",
          "type": "bytes"
        }
      ],
      "name": "lzReceive",
      "outputs": [],
      "stateMutability": "payable",
      "type": "function"
    },
    {
      "inputs": [
        {
          "components": [
            {
              "components": [
                {
                  "internalType": "uint32",
                  "name": "srcEid",
                  "type": "uint32"
                },
                {
                  "internalType": "bytes32",
                  "name": "sender",
                  "type": "bytes32"
                },
                {
                  "internalType": "uint64",
                  "name": "nonce",
                  "type": "uint64"
                }
              ],
              "internalType": "struct Origin",
              "name": "origin",
              "type": "tuple"
            },
            {
              "internalType": "uint32",
              "name": "dstEid",
              "type": "uint32"
            },
            {
              "internalType": "address",
              "name": "receiver",
              "type": "address"
            },
            {
              "internalType": "bytes32",
              "name": "guid",
              "type": "bytes32"
            },
            {
              "internalType": "uint256",
              "name": "value",
              "type": "uint256"
            },
            {
              "internalType": "address",
              "name": "executor",
              "type": "address"
            },
            {
              "internalType": "bytes",
              "name": "message",
              "type": "bytes"
            },
            {
              "internalType": "bytes",
              "name": "extraData",
              "type": "bytes"
            }
          ],
          "internalType": "struct InboundPacket[]",
          "name": "_packets",
          "type": "tuple[]"
        }
      ],
      "name": "lzReceiveAndRevert",
      "outputs": [],
      "stateMutability": "payable",
      "type": "function"
    },
    {
      "inputs": [
        {
          "components": [
            {
              "internalType": "uint32",
              "name": "srcEid",
              "type": "uint32"
            },
            {
              "internalType": "bytes32",
              "name": "sender",
              "type": "bytes32"
            },
            {
              "internalType": "uint64",
              "name": "nonce",
              "type": "uint64"
            }
          ],
          "internalType": "struct Origin",
          "name": "_origin",
          "type": "tuple"
        },
        {
          "internalType": "bytes32",
          "name": "_guid",
          "type": "bytes32"
        },
        {
          "internalType": "bytes",
          "name": "_message",
          "type": "bytes"
        },
        {
          "internalType": "address",
          "name": "_executor",
          "type": "address"
        },
        {
          "internalType": "bytes",
          "name": "_extraData",
          "type": "bytes"
        }
      ],
      "name": "lzReceiveSimulate",
      "outputs": [],
      "stateMutability": "payable",
      "type": "function"
    },
    {
      "inputs": [
        {
          "internalType": "address",
          "name": "token",
          "type": "address"
        }
      ],
      "name": "maxFlashLoan",
      "outputs": [
        {
          "internalType": "uint256",
          "name": "",
          "type": "uint256"
        }
      ],
      "stateMutability": "view",
      "type": "function"
    },
    {
      "inputs": [
        {
          "internalType": "address",
          "name": "_account",
          "type": "address"
        },
        {
          "internalType": "uint256",
          "name": "_amount",
          "type": "uint256"
        }
      ],
      "name": "mint",
      "outputs": [],
      "stateMutability": "nonpayable",
      "type": "function"
    },
    {
      "inputs": [],
      "name": "msgInspector",
      "outputs": [
        {
          "internalType": "address",
          "name": "",
          "type": "address"
        }
      ],
      "stateMutability": "view",
      "type": "function"
    },
    {
      "inputs": [],
      "name": "name",
      "outputs": [
        {
          "internalType": "string",
          "name": "",
          "type": "string"
        }
      ],
      "stateMutability": "view",
      "type": "function"
    },
    {
      "inputs": [
        {
          "internalType": "uint32",
          "name": "",
          "type": "uint32"
        },
        {
          "internalType": "bytes32",
          "name": "",
          "type": "bytes32"
        }
      ],
      "name": "nextNonce",
      "outputs": [
        {
          "internalType": "uint64",
          "name": "nonce",
          "type": "uint64"
        }
      ],
      "stateMutability": "view",
      "type": "function"
    },
    {
      "inputs": [
        {
          "internalType": "address",
          "name": "owner",
          "type": "address"
        }
      ],
      "name": "nonces",
      "outputs": [
        {
          "internalType": "uint256",
          "name": "",
          "type": "uint256"
        }
      ],
      "stateMutability": "view",
      "type": "function"
    },
    {
      "inputs": [],
      "name": "oApp",
      "outputs": [
        {
          "internalType": "address",
          "name": "",
          "type": "address"
        }
      ],
      "stateMutability": "view",
      "type": "function"
    },
    {
      "inputs": [],
      "name": "oAppVersion",
      "outputs": [
        {
          "internalType": "uint64",
          "name": "senderVersion",
          "type": "uint64"
        },
        {
          "internalType": "uint64",
          "name": "receiverVersion",
          "type": "uint64"
        }
      ],
      "stateMutability": "pure",
      "type": "function"
    },
    {
      "inputs": [],
      "name": "oftVersion",
      "outputs": [
        {
          "internalType": "bytes4",
          "name": "interfaceId",
          "type": "bytes4"
        },
        {
          "internalType": "uint64",
          "name": "version",
          "type": "uint64"
        }
      ],
      "stateMutability": "pure",
      "type": "function"
    },
    {
      "inputs": [],
      "name": "owner",
      "outputs": [
        {
          "internalType": "address",
          "name": "",
          "type": "address"
        }
      ],
      "stateMutability": "view",
      "type": "function"
    },
    {
      "inputs": [
        {
          "internalType": "uint32",
          "name": "eid",
          "type": "uint32"
        }
      ],
      "name": "peers",
      "outputs": [
        {
          "internalType": "bytes32",
          "name": "peer",
          "type": "bytes32"
        }
      ],
      "stateMutability": "view",
      "type": "function"
    },
    {
      "inputs": [
        {
          "internalType": "address",
          "name": "owner",
          "type": "address"
        },
        {
          "internalType": "address",
          "name": "spender",
          "type": "address"
        },
        {
          "internalType": "uint256",
          "name": "value",
          "type": "uint256"
        },
        {
          "internalType": "uint256",
          "name": "deadline",
          "type": "uint256"
        },
        {
          "internalType": "uint8",
          "name": "v",
          "type": "uint8"
        },
        {
          "internalType": "bytes32",
          "name": "r",
          "type": "bytes32"
        },
        {
          "internalType": "bytes32",
          "name": "s",
          "type": "bytes32"
        }
      ],
      "name": "permit",
      "outputs": [],
      "stateMutability": "nonpayable",
      "type": "function"
    },
    {
      "inputs": [],
      "name": "preCrime",
      "outputs": [
        {
          "internalType": "address",
          "name": "",
          "type": "address"
        }
      ],
      "stateMutability": "view",
      "type": "function"
    },
    {
      "inputs": [
        {
          "components": [
            {
              "internalType": "uint32",
              "name": "dstEid",
              "type": "uint32"
            },
            {
              "internalType": "bytes32",
              "name": "to",
              "type": "bytes32"
            },
            {
              "internalType": "uint256",
              "name": "amountLD",
              "type": "uint256"
            },
            {
              "internalType": "uint256",
              "name": "minAmountLD",
              "type": "uint256"
            },
            {
              "internalType": "bytes",
              "name": "extraOptions",
              "type": "bytes"
            },
            {
              "internalType": "bytes",
              "name": "composeMsg",
              "type": "bytes"
            },
            {
              "internalType": "bytes",
              "name": "oftCmd",
              "type": "bytes"
            }
          ],
          "internalType": "struct SendParam",
          "name": "_sendParam",
          "type": "tuple"
        }
      ],
      "name": "quoteOFT",
      "outputs": [
        {
          "components": [
            {
              "internalType": "uint256",
              "name": "minAmountLD",
              "type": "uint256"
            },
            {
              "internalType": "uint256",
              "name": "maxAmountLD",
              "type": "uint256"
            }
          ],
          "internalType": "struct OFTLimit",
          "name": "oftLimit",
          "type": "tuple"
        },
        {
          "components": [
            {
              "internalType": "int256",
              "name": "feeAmountLD",
              "type": "int256"
            },
            {
              "internalType": "string",
              "name": "description",
              "type": "string"
            }
          ],
          "internalType": "struct OFTFeeDetail[]",
          "name": "oftFeeDetails",
          "type": "tuple[]"
        },
        {
          "components": [
            {
              "internalType": "uint256",
              "name": "amountSentLD",
              "type": "uint256"
            },
            {
              "internalType": "uint256",
              "name": "amountReceivedLD",
              "type": "uint256"
            }
          ],
          "internalType": "struct OFTReceipt",
          "name": "oftReceipt",
          "type": "tuple"
        }
      ],
      "stateMutability": "view",
      "type": "function"
    },
    {
      "inputs": [
        {
          "components": [
            {
              "internalType": "uint32",
              "name": "dstEid",
              "type": "uint32"
            },
            {
              "internalType": "bytes32",
              "name": "to",
              "type": "bytes32"
            },
            {
              "internalType": "uint256",
              "name": "amountLD",
              "type": "uint256"
            },
            {
              "internalType": "uint256",
              "name": "minAmountLD",
              "type": "uint256"
            },
            {
              "internalType": "bytes",
              "name": "extraOptions",
              "type": "bytes"
            },
            {
              "internalType": "bytes",
              "name": "composeMsg",
              "type": "bytes"
            },
            {
              "internalType": "bytes",
              "name": "oftCmd",
              "type": "bytes"
            }
          ],
          "internalType": "struct SendParam",
          "name": "_sendParam",
          "type": "tuple"
        },
        {
          "internalType": "bool",
          "name": "_payInLzToken",
          "type": "bool"
        }
      ],
      "name": "quoteSend",
      "outputs": [
        {
          "components": [
            {
              "internalType": "uint256",
              "name": "nativeFee",
              "type": "uint256"
            },
            {
              "internalType": "uint256",
              "name": "lzTokenFee",
              "type": "uint256"
            }
          ],
          "internalType": "struct MessagingFee",
          "name": "msgFee",
          "type": "tuple"
        }
      ],
      "stateMutability": "view",
      "type": "function"
    },
    {
      "inputs": [],
      "name": "renounceOwnership",
      "outputs": [],
      "stateMutability": "nonpayable",
      "type": "function"
    },
    {
      "inputs": [
        {
          "internalType": "bytes32",
          "name": "role",
          "type": "bytes32"
        },
        {
          "internalType": "address",
          "name": "callerConfirmation",
          "type": "address"
        }
      ],
      "name": "renounceRole",
      "outputs": [],
      "stateMutability": "nonpayable",
      "type": "function"
    },
    {
      "inputs": [
        {
          "internalType": "address",
          "name": "_account",
          "type": "address"
        }
      ],
      "name": "revokeManagerRole",
      "outputs": [],
      "stateMutability": "nonpayable",
      "type": "function"
    },
    {
      "inputs": [
        {
          "internalType": "bytes32",
          "name": "role",
          "type": "bytes32"
        },
        {
          "internalType": "address",
          "name": "account",
          "type": "address"
        }
      ],
      "name": "revokeRole",
      "outputs": [],
      "stateMutability": "nonpayable",
      "type": "function"
    },
    {
      "inputs": [
        {
          "components": [
            {
              "internalType": "uint32",
              "name": "dstEid",
              "type": "uint32"
            },
            {
              "internalType": "bytes32",
              "name": "to",
              "type": "bytes32"
            },
            {
              "internalType": "uint256",
              "name": "amountLD",
              "type": "uint256"
            },
            {
              "internalType": "uint256",
              "name": "minAmountLD",
              "type": "uint256"
            },
            {
              "internalType": "bytes",
              "name": "extraOptions",
              "type": "bytes"
            },
            {
              "internalType": "bytes",
              "name": "composeMsg",
              "type": "bytes"
            },
            {
              "internalType": "bytes",
              "name": "oftCmd",
              "type": "bytes"
            }
          ],
          "internalType": "struct SendParam",
          "name": "_sendParam",
          "type": "tuple"
        },
        {
          "components": [
            {
              "internalType": "uint256",
              "name": "nativeFee",
              "type": "uint256"
            },
            {
              "internalType": "uint256",
              "name": "lzTokenFee",
              "type": "uint256"
            }
          ],
          "internalType": "struct MessagingFee",
          "name": "_fee",
          "type": "tuple"
        },
        {
          "internalType": "address",
          "name": "_refundAddress",
          "type": "address"
        }
      ],
      "name": "send",
      "outputs": [
        {
          "components": [
            {
              "internalType": "bytes32",
              "name": "guid",
              "type": "bytes32"
            },
            {
              "internalType": "uint64",
              "name": "nonce",
              "type": "uint64"
            },
            {
              "components": [
                {
                  "internalType": "uint256",
                  "name": "nativeFee",
                  "type": "uint256"
                },
                {
                  "internalType": "uint256",
                  "name": "lzTokenFee",
                  "type": "uint256"
                }
              ],
              "internalType": "struct MessagingFee",
              "name": "fee",
              "type": "tuple"
            }
          ],
          "internalType": "struct MessagingReceipt",
          "name": "msgReceipt",
          "type": "tuple"
        },
        {
          "components": [
            {
              "internalType": "uint256",
              "name": "amountSentLD",
              "type": "uint256"
            },
            {
              "internalType": "uint256",
              "name": "amountReceivedLD",
              "type": "uint256"
            }
          ],
          "internalType": "struct OFTReceipt",
          "name": "oftReceipt",
          "type": "tuple"
        }
      ],
      "stateMutability": "payable",
      "type": "function"
    },
    {
      "inputs": [
        {
          "internalType": "address",
          "name": "_delegate",
          "type": "address"
        }
      ],
      "name": "setDelegate",
      "outputs": [],
      "stateMutability": "nonpayable",
      "type": "function"
    },
    {
      "inputs": [
        {
          "components": [
            {
              "internalType": "uint32",
              "name": "eid",
              "type": "uint32"
            },
            {
              "internalType": "uint16",
              "name": "msgType",
              "type": "uint16"
            },
            {
              "internalType": "bytes",
              "name": "options",
              "type": "bytes"
            }
          ],
          "internalType": "struct EnforcedOptionParam[]",
          "name": "_enforcedOptions",
          "type": "tuple[]"
        }
      ],
      "name": "setEnforcedOptions",
      "outputs": [],
      "stateMutability": "nonpayable",
      "type": "function"
    },
    {
      "inputs": [
        {
          "internalType": "address",
          "name": "_msgInspector",
          "type": "address"
        }
      ],
      "name": "setMsgInspector",
      "outputs": [],
      "stateMutability": "nonpayable",
      "type": "function"
    },
    {
      "inputs": [
        {
          "internalType": "uint32",
          "name": "_eid",
          "type": "uint32"
        },
        {
          "internalType": "bytes32",
          "name": "_peer",
          "type": "bytes32"
        }
      ],
      "name": "setPeer",
      "outputs": [],
      "stateMutability": "nonpayable",
      "type": "function"
    },
    {
      "inputs": [
        {
          "internalType": "address",
          "name": "_preCrime",
          "type": "address"
        }
      ],
      "name": "setPreCrime",
      "outputs": [],
      "stateMutability": "nonpayable",
      "type": "function"
    },
    {
      "inputs": [],
      "name": "sharedDecimals",
      "outputs": [
        {
          "internalType": "uint8",
          "name": "",
          "type": "uint8"
        }
      ],
      "stateMutability": "view",
      "type": "function"
    },
    {
      "inputs": [
        {
          "internalType": "bytes4",
          "name": "interfaceId",
          "type": "bytes4"
        }
      ],
      "name": "supportsInterface",
      "outputs": [
        {
          "internalType": "bool",
          "name": "",
          "type": "bool"
        }
      ],
      "stateMutability": "view",
      "type": "function"
    },
    {
      "inputs": [],
      "name": "symbol",
      "outputs": [
        {
          "internalType": "string",
          "name": "",
          "type": "string"
        }
      ],
      "stateMutability": "view",
      "type": "function"
    },
    {
      "inputs": [],
      "name": "token",
      "outputs": [
        {
          "internalType": "address",
          "name": "",
          "type": "address"
        }
      ],
      "stateMutability": "view",
      "type": "function"
    },
    {
      "inputs": [],
      "name": "totalSupply",
      "outputs": [
        {
          "internalType": "uint256",
          "name": "",
          "type": "uint256"
        }
      ],
      "stateMutability": "view",
      "type": "function"
    },
    {
      "inputs": [
        {
          "internalType": "address",
          "name": "to",
          "type": "address"
        },
        {
          "internalType": "uint256",
          "name": "value",
          "type": "uint256"
        }
      ],
      "name": "transfer",
      "outputs": [
        {
          "internalType": "bool",
          "name": "",
          "type": "bool"
        }
      ],
      "stateMutability": "nonpayable",
      "type": "function"
    },
    {
      "inputs": [
        {
          "internalType": "address",
          "name": "from",
          "type": "address"
        },
        {
          "internalType": "address",
          "name": "to",
          "type": "address"
        },
        {
          "internalType": "uint256",
          "name": "value",
          "type": "uint256"
        }
      ],
      "name": "transferFrom",
      "outputs": [
        {
          "internalType": "bool",
          "name": "",
          "type": "bool"
        }
      ],
      "stateMutability": "nonpayable",
      "type": "function"
    },
    {
      "inputs": [
        {
          "internalType": "address",
          "name": "newOwner",
          "type": "address"
        }
      ],
      "name": "transferOwnership",
      "outputs": [],
      "stateMutability": "nonpayable",
      "type": "function"
    },
    {
      "inputs": [
        {
          "internalType": "address",
          "name": "_from",
          "type": "address"
        },
        {
          "internalType": "address",
          "name": "_to",
          "type": "address"
        },
        {
          "internalType": "uint256",
          "name": "_amount",
          "type": "uint256"
        }
      ],
      "name": "transferPermissioned",
      "outputs": [],
      "stateMutability": "nonpayable",
      "type": "function"
    }
  ],
  "bytecode": "0x6101a06040527f241ecf16d79d0f8dbfb92cbc07fe17840425976cf0667f022fe9877caa831b08600f553480156200003657600080fd5b50604051620054f9380380620054f983398101604081905262000059916200071e565b6040518060400160405280600e81526020016d2d30b49029ba30b13632b1b7b4b760911b815250604051806040016040528060048152602001632aa9a23d60e11b81525083836040518060400160405280600e81526020016d2d30b49029ba30b13632b1b7b4b760911b81525080604051806040016040528060018152602001603160f81b8152508686620000f36200033960201b60201c565b87878181818133806200012157604051631e4fbdf760e01b8152600060048201526024015b60405180910390fd5b6200012c816200033e565b506001600160a01b0380831660805281166200015b57604051632d618d8160e21b815260040160405180910390fd5b60805160405163ca5eb5e160e01b81526001600160a01b0383811660048301529091169063ca5eb5e190602401600060405180830381600087803b158015620001a357600080fd5b505af1158015620001b8573d6000803e3d6000fd5b5050505050505050620001d06200038e60201b60201c565b60ff168360ff161015620001f7576040516301e9714b60e41b815260040160405180910390fd5b620002046006846200076c565b6200021190600a62000885565b60a052506008915062000227905083826200093b565b5060096200023682826200093b565b50620002489150839050600a62000393565b610160526200025981600b62000393565b61018052815160208084019190912061012052815190820120610140524660e052620002e96101205161014051604080517f8b73c3c69bb8fe3d512ecc4cf759cc79239f7b179b0ffacaa9a75d522b39400f60208201529081019290925260608201524660808201523060a082015260009060c00160405160208183030381529060405280519060200120905090565b60c05250503061010052506200030f9350339250670de0b6b3a7640000915050620003cc565b6200032333670de0b6b3a76400006200040a565b6200033060003062000444565b50505062000a92565b601290565b600080546001600160a01b038381166001600160a01b0319831681178455604051919092169283917f8be0079c531659141344cd1fd0a4f28419497f9722a3daafe3b4186f6b6457e09190a35050565b600690565b6000602083511015620003b357620003ab836200047f565b9050620003c6565b81620003c084826200093b565b5060ff90505b92915050565b6001600160a01b038216620003f85760405163ec442f0560e01b81526000600482015260240162000118565b6200040660008383620004c2565b5050565b6001600160a01b0382166200043657604051634b637e8f60e11b81526000600482015260240162000118565b6200040682600083620004c2565b600080620004538484620005f5565b9050801562000478576000848152600e60205260409020620004769084620006a7565b505b9392505050565b600080829050601f81511115620004ad578260405163305a27a960e01b815260040162000118919062000a07565b8051620004ba8262000a57565b179392505050565b6001600160a01b038316620004f1578060076000828254620004e5919062000a7c565b90915550620005659050565b6001600160a01b03831660009081526005602052604090205481811015620005465760405163391434e360e21b81526001600160a01b0385166004820152602481018290526044810183905260640162000118565b6001600160a01b03841660009081526005602052604090209082900390555b6001600160a01b0382166200058357600780548290039055620005a2565b6001600160a01b03821660009081526005602052604090208054820190555b816001600160a01b0316836001600160a01b03167fddf252ad1be2c89b69c2b068fc378daa952ba7f163c4a11628f55a4df523b3ef83604051620005e891815260200190565b60405180910390a3505050565b6000828152600d602090815260408083206001600160a01b038516845290915281205460ff166200069e576000838152600d602090815260408083206001600160a01b03861684529091529020805460ff19166001179055620006553390565b6001600160a01b0316826001600160a01b0316847f2f8788117e7eff1d82e926ec794901d17c78024a50270940304540a733656f0d60405160405180910390a4506001620003c6565b506000620003c6565b600062000478836001600160a01b03841660008181526001830160205260408120546200069e57508154600181810184556000848152602080822090930184905584548482528286019093526040902091909155620003c6565b80516001600160a01b03811681146200071957600080fd5b919050565b600080604083850312156200073257600080fd5b6200073d8362000701565b91506200074d6020840162000701565b90509250929050565b634e487b7160e01b600052601160045260246000fd5b60ff8281168282160390811115620003c657620003c662000756565b600181815b80851115620007c9578160001904821115620007ad57620007ad62000756565b80851615620007bb57918102915b93841c93908002906200078d565b509250929050565b600082620007e257506001620003c6565b81620007f157506000620003c6565b81600181146200080a5760028114620008155762000835565b6001915050620003c6565b60ff84111562000829576200082962000756565b50506001821b620003c6565b5060208310610133831016604e8410600b84101617156200085a575081810a620003c6565b62000866838362000788565b80600019048211156200087d576200087d62000756565b029392505050565b60006200047860ff841683620007d1565b634e487b7160e01b600052604160045260246000fd5b600181811c90821680620008c157607f821691505b602082108103620008e257634e487b7160e01b600052602260045260246000fd5b50919050565b601f8211156200093657600081815260208120601f850160051c81016020861015620009115750805b601f850160051c820191505b8181101562000932578281556001016200091d565b5050505b505050565b81516001600160401b0381111562000957576200095762000896565b6200096f81620009688454620008ac565b84620008e8565b602080601f831160018114620009a757600084156200098e5750858301515b600019600386901b1c1916600185901b17855562000932565b600085815260208120601f198616915b82811015620009d857888601518255948401946001909101908401620009b7565b5085821015620009f75787850151600019600388901b60f8161c191681555b5050505050600190811b01905550565b600060208083528351808285015260005b8181101562000a365785810183015185820160400152820162000a18565b506000604082860101526040601f19601f8301168501019250505092915050565b80516020808301519190811015620008e25760001960209190910360031b1b16919050565b80820180821115620003c657620003c662000756565b60805160a05160c05160e05161010051610120516101405161016051610180516149b062000b496000396000612624015260006125f70152600061228b01526000612263015260006121be015260006121e8015260006122120152600081816109b501528181612a4f01528181612ac40152612eaf0152600081816107a501528181610e720152818161199501528181611f150152818161245c015281816127ec01528181613068015261313a01526149b06000f3fe6080604052600436106103de5760003560e01c80637ecebe001161020d578063bc70b35411610128578063d505accf116100bb578063ec87621c1161008a578063f3ae24151161006f578063f3ae241514610c70578063fc0c546a14610709578063ff7bd03d14610c9057600080fd5b8063ec87621c14610c3a578063f2fde38b14610c5057600080fd5b8063d505accf14610b94578063d547741f14610bb4578063d9d98ce414610bd4578063dd62ed3e14610bf457600080fd5b8063ca15c873116100f7578063ca15c87314610b21578063ca5eb5e114610b41578063d045a0dc14610b61578063d424388514610b7457600080fd5b8063bc70b35414610aad578063bd815db014610acd578063be4dc94f14610ae0578063c7c7f5b314610b0057600080fd5b8063963efcaa116101a0578063a9059cbb1161016f578063a9059cbb14610a20578063b731ea0a14610a40578063b98bd07014610a60578063bb0b6a5314610a8057600080fd5b8063963efcaa146109a35780639dc29fac146109d75780639f68b964146109f7578063a217fddf14610a0b57600080fd5b80638da5cb5b116101dc5780638da5cb5b1461090a5780639010d07c1461092857806391d148541461094857806395d89b411461098e57600080fd5b80637ecebe001461088e57806382413eac146108ae57806384b0196e146108ce578063857749b0146108f657600080fd5b8063313ce567116102fd5780635a0dfe4d116102905780636fc1b31e1161025f5780636fc1b31e146107e757806370a0823114610807578063715018a61461083d5780637d25a05e1461085257600080fd5b80635a0dfe4d1461073c5780635cffe9de146107735780635e280f1114610793578063613255ab146107c757600080fd5b80633b6f743b116102cc5780633b6f743b146106bc57806340c10f19146106e957806352ae2879146107095780635535d4611461071c57600080fd5b8063313ce567146106455780633400288b146106675780633644e5151461068757806336568abe1461069c57600080fd5b8063161710ef1161037557806323b872dd1161034457806323b872dd146105b5578063248a9ca3146105d557806326e885e3146106055780632f2ff15d1461062557600080fd5b8063161710ef1461053f57806317442b701461055f57806318160ddd146105815780631f5e1334146105a057600080fd5b8063111ecdad116103b1578063111ecdad1461048957806313137d65146104c1578063134d4f25146104d6578063156a0d0f146104fe57600080fd5b806301ffc9a7146103e357806306fdde0314610418578063095ea7b31461043a5780630d35b4151461045a575b600080fd5b3480156103ef57600080fd5b506104036103fe366004613762565b610cb0565b60405190151581526020015b60405180910390f35b34801561042457600080fd5b5061042d610cf4565b60405161040f91906137dc565b34801561044657600080fd5b50610403610455366004613804565b610d86565b34801561046657600080fd5b5061047a610475366004613848565b610d9e565b60405161040f9392919061387d565b34801561049557600080fd5b506004546104a9906001600160a01b031681565b6040516001600160a01b03909116815260200161040f565b6104d46104cf366004613970565b610e70565b005b3480156104e257600080fd5b506104eb600281565b60405161ffff909116815260200161040f565b34801561050a57600080fd5b50604080517f02e49c2c000000000000000000000000000000000000000000000000000000008152600160208201520161040f565b34801561054b57600080fd5b506104d461055a366004613a10565b610f62565b34801561056b57600080fd5b506040805160018152600260208201520161040f565b34801561058d57600080fd5b506007545b60405190815260200161040f565b3480156105ac57600080fd5b506104eb600181565b3480156105c157600080fd5b506104036105d0366004613a10565b610f7f565b3480156105e157600080fd5b506105926105f0366004613a51565b6000908152600d602052604090206001015490565b34801561061157600080fd5b506104d4610620366004613a6a565b610fa5565b34801561063157600080fd5b506104d4610640366004613a87565b610fbd565b34801561065157600080fd5b5060125b60405160ff909116815260200161040f565b34801561067357600080fd5b506104d4610682366004613ad0565b610fe2565b34801561069357600080fd5b50610592610ff4565b3480156106a857600080fd5b506104d46106b7366004613a87565b611003565b3480156106c857600080fd5b506106dc6106d7366004613afa565b611054565b60405161040f9190613b41565b3480156106f557600080fd5b506104d4610704366004613804565b6110bb565b34801561071557600080fd5b50306104a9565b34801561072857600080fd5b5061042d610737366004613b6a565b6110d1565b34801561074857600080fd5b50610403610757366004613ad0565b63ffffffff919091166000908152600160205260409020541490565b34801561077f57600080fd5b5061040361078e366004613b9d565b611176565b34801561079f57600080fd5b506104a97f000000000000000000000000000000000000000000000000000000000000000081565b3480156107d357600080fd5b506105926107e2366004613a6a565b61133a565b3480156107f357600080fd5b506104d4610802366004613a6a565b611362565b34801561081357600080fd5b50610592610822366004613a6a565b6001600160a01b031660009081526005602052604090205490565b34801561084957600080fd5b506104d46113cc565b34801561085e57600080fd5b5061087561086d366004613ad0565b600092915050565b60405167ffffffffffffffff909116815260200161040f565b34801561089a57600080fd5b506105926108a9366004613a6a565b6113e0565b3480156108ba57600080fd5b506104036108c9366004613c10565b6113fe565b3480156108da57600080fd5b506108e3611413565b60405161040f9796959493929190613c77565b34801561090257600080fd5b506006610655565b34801561091657600080fd5b506000546001600160a01b03166104a9565b34801561093457600080fd5b506104a9610943366004613d29565b611475565b34801561095457600080fd5b50610403610963366004613a87565b6000918252600d602090815260408084206001600160a01b0393909316845291905290205460ff1690565b34801561099a57600080fd5b5061042d61148d565b3480156109af57600080fd5b506105927f000000000000000000000000000000000000000000000000000000000000000081565b3480156109e357600080fd5b506104d46109f2366004613804565b61149c565b348015610a0357600080fd5b506000610403565b348015610a1757600080fd5b50610592600081565b348015610a2c57600080fd5b50610403610a3b366004613804565b6114b2565b348015610a4c57600080fd5b506002546104a9906001600160a01b031681565b348015610a6c57600080fd5b506104d4610a7b366004613d90565b6114c0565b348015610a8c57600080fd5b50610592610a9b366004613dd2565b60016020526000908152604090205481565b348015610ab957600080fd5b5061042d610ac8366004613ded565b6114da565b6104d4610adb366004613d90565b611682565b348015610aec57600080fd5b506104d4610afb366004613a6a565b61182f565b610b13610b0e366004613e4e565b611843565b60405161040f929190613ebc565b348015610b2d57600080fd5b50610592610b3c366004613a51565b61193e565b348015610b4d57600080fd5b506104d4610b5c366004613a6a565b611955565b6104d4610b6f366004613970565b6119f4565b348015610b8057600080fd5b506104d4610b8f366004613a6a565b611a3c565b348015610ba057600080fd5b506104d4610baf366004613f0f565b611a9f565b348015610bc057600080fd5b506104d4610bcf366004613a87565b611c0b565b348015610be057600080fd5b50610592610bef366004613804565b611c30565b348015610c0057600080fd5b50610592610c0f366004613f86565b6001600160a01b03918216600090815260066020908152604080832093909416825291909152205490565b348015610c4657600080fd5b50610592600f5481565b348015610c5c57600080fd5b506104d4610c6b366004613a6a565b611c86565b348015610c7c57600080fd5b50610403610c8b366004613a6a565b611cdd565b348015610c9c57600080fd5b50610403610cab366004613fb4565b611d0b565b60006001600160e01b031982167f5a05180f000000000000000000000000000000000000000000000000000000001480610cee5750610cee82611d41565b92915050565b606060088054610d0390613fd0565b80601f0160208091040260200160405190810160405280929190818152602001828054610d2f90613fd0565b8015610d7c5780601f10610d5157610100808354040283529160200191610d7c565b820191906000526020600020905b815481529060010190602001808311610d5f57829003601f168201915b5050505050905090565b600033610d94818585611da8565b5060019392505050565b60408051808201909152600080825260208201526060610dd1604051806040016040528060008152602001600081525090565b604080518082018252600080825267ffffffffffffffff602080840182905284518381529081019094529195509182610e2d565b604080518082019091526000815260606020820152815260200190600190039081610e055790505b509350600080610e52604089013560608a0135610e4d60208c018c613dd2565b611db5565b60408051808201909152918252602082015296989597505050505050565b7f00000000000000000000000000000000000000000000000000000000000000006001600160a01b03163314610ed9576040517f91ac5e4f0000000000000000000000000000000000000000000000000000000081523360048201526024015b60405180910390fd5b60208701803590610ef390610eee908a613dd2565b611e12565b14610f4a57610f056020880188613dd2565b6040517fc26bebcc00000000000000000000000000000000000000000000000000000000815263ffffffff909116600482015260208801356024820152604401610ed0565b610f5987878787878787611e67565b50505050505050565b600f54610f6e81611fe7565b610f79848484611ff1565b50505050565b600033610f8d858285612050565b610f98858585611ff1565b60019150505b9392505050565b610fad6120e1565b610fb9600f5482612127565b5050565b6000828152600d6020526040902060010154610fd881611fe7565b610f798383612127565b610fea6120e1565b610fb9828261215c565b6000610ffe6121b1565b905090565b6001600160a01b0381163314611045576040517f6697b23200000000000000000000000000000000000000000000000000000000815260040160405180910390fd5b61104f82826122dc565b505050565b6040805180820190915260008082526020820152600061108460408501356060860135610e4d6020880188613dd2565b9150506000806110948684612309565b90925090506110b16110a96020880188613dd2565b838388612446565b9695505050505050565b600f546110c781611fe7565b61104f8383612527565b6003602090815260009283526040808420909152908252902080546110f590613fd0565b80601f016020809104026020016040519081016040528092919081815260200182805461112190613fd0565b801561116e5780601f106111435761010080835404028352916020019161116e565b820191906000526020600020905b81548152906001019060200180831161115157829003601f168201915b505050505081565b6000806111828661133a565b9050808511156111c1576040517ffd9a760900000000000000000000000000000000000000000000000000000000815260048101829052602401610ed0565b60006111cd8787611c30565b90506111d98887612527565b6040517f23e30c8b0000000000000000000000000000000000000000000000000000000081527f439148f0bbc682ca079e46d6e2c2f0c1e3b820f1a291b069d8882abf8cf18dd9906001600160a01b038a16906323e30c8b9061124a9033908c908c9088908d908d90600401614043565b6020604051808303816000875af1158015611269573d6000803e3d6000fd5b505050506040513d601f19601f8201168201806040525081019061128d9190614088565b146112cf576040517f678c5b000000000000000000000000000000000000000000000000000000000081526001600160a01b0389166004820152602401610ed0565b60006112e589306112e0858b6140b7565b612050565b8115806112f957506001600160a01b038116155b15611316576113118961130c848a6140b7565b61255d565b61132b565b611320898861255d565b61132b898284611ff1565b50600198975050505050505050565b60006001600160a01b0382163014611353576000610cee565b600754610cee906000196140ca565b61136a6120e1565b6004805473ffffffffffffffffffffffffffffffffffffffff19166001600160a01b0383169081179091556040519081527ff0be4f1e87349231d80c36b33f9e8639658eeaf474014dee15a3e6a4d4414197906020015b60405180910390a150565b6113d46120e1565b6113de6000612593565b565b6001600160a01b0381166000908152600c6020526040812054610cee565b6001600160a01b03811630145b949350505050565b6000606080600080600060606114276125f0565b61142f61261d565b604080516000808252602082019092527f0f000000000000000000000000000000000000000000000000000000000000009b939a50919850469750309650945092509050565b6000828152600e60205260408120610f9e908361264a565b606060098054610d0390613fd0565b600f546114a881611fe7565b61104f838361255d565b600033610d94818585611ff1565b6114c86120e1565b610fb96114d58284614182565b612656565b63ffffffff8416600090815260036020908152604080832061ffff8716845290915281208054606092919061150e90613fd0565b80601f016020809104026020016040519081016040528092919081815260200182805461153a90613fd0565b80156115875780601f1061155c57610100808354040283529160200191611587565b820191906000526020600020905b81548152906001019060200180831161156a57829003601f168201915b5050505050905080516000036115d75783838080601f01602080910402602001604051908101604052809392919081815260200183838082843760009201919091525092945061140b9350505050565b60008390036115e757905061140b565b600283106116655761162e84848080601f01602080910402602001604051908101604052809392919081815260200183838082843760009201919091525061276792505050565b8061163c8460028188614298565b60405160200161164e939291906142c2565b60405160208183030381529060405291505061140b565b8383604051639a6d49cd60e01b8152600401610ed09291906142ea565b60005b8181101561179557368383838181106116a0576116a06142fe565b90506020028101906116b29190614314565b90506116e56116c46020830183613dd2565b602083013563ffffffff919091166000908152600160205260409020541490565b6116ef5750611783565b3063d045a0dc60c08301358360a081013561170e610100830183614335565b61171f610100890160e08a01613a6a565b61172d6101208a018a614335565b6040518963ffffffff1660e01b815260040161174f9796959493929190614392565b6000604051808303818588803b15801561176857600080fd5b505af115801561177c573d6000803e3d6000fd5b5050505050505b8061178d81614419565b915050611685565b50336001600160a01b0316638e9e70996040518163ffffffff1660e01b8152600401600060405180830381865afa1580156117d4573d6000803e3d6000fd5b505050506040513d6000823e601f3d908101601f191682016040526117fc9190810190614432565b6040517f8351eea7000000000000000000000000000000000000000000000000000000008152600401610ed091906137dc565b6118376120e1565b610fb9600f54826122dc565b61184b61371a565b604080518082019091526000808252602082015260008061188233604089013560608a013561187d60208c018c613dd2565b612793565b915091506000806118938984612309565b90925090506118bf6118a860208b018b613dd2565b83836118b9368d90038d018d6144a0565b8b6127b9565b60408051808201909152858152602080820186905282519298509096503391907f85496b760a4b7f8d66384b9df21b381f5d1b1e79f229a47aaf4c232edc2fe59a9061190d908d018d613dd2565b6040805163ffffffff909216825260208201899052810187905260600160405180910390a350505050935093915050565b6000818152600e60205260408120610cee906128c4565b61195d6120e1565b6040517fca5eb5e10000000000000000000000000000000000000000000000000000000081526001600160a01b0382811660048301527f0000000000000000000000000000000000000000000000000000000000000000169063ca5eb5e190602401600060405180830381600087803b1580156119d957600080fd5b505af11580156119ed573d6000803e3d6000fd5b5050505050565b333014611a2d576040517f14d4a4e800000000000000000000000000000000000000000000000000000000815260040160405180910390fd5b610f5987878787878787610f4a565b611a446120e1565b6002805473ffffffffffffffffffffffffffffffffffffffff19166001600160a01b0383169081179091556040519081527fd48d879cef83a1c0bdda516f27b13ddb1b3f8bbac1c9e1511bb2a659c2427760906020016113c1565b83421115611adc576040517f6279130200000000000000000000000000000000000000000000000000000000815260048101859052602401610ed0565b60007f6e71edae12b1b97f4d1f60370fef10105fa2faae0126114a169c64845d6126c9888888611b298c6001600160a01b03166000908152600c6020526040902080546001810190915590565b6040805160208101969096526001600160a01b0394851690860152929091166060840152608083015260a082015260c0810186905260e0016040516020818303038152906040528051906020012090506000611b84826128ce565b90506000611b9482878787612916565b9050896001600160a01b0316816001600160a01b031614611bf4576040517f4b800e460000000000000000000000000000000000000000000000000000000081526001600160a01b0380831660048301528b166024820152604401610ed0565b611bff8a8a8a611da8565b50505050505050505050565b6000828152600d6020526040902060010154611c2681611fe7565b610f7983836122dc565b60006001600160a01b0383163014611c7f576040517fb5a7db920000000000000000000000000000000000000000000000000000000081526001600160a01b0384166004820152602401610ed0565b6000610f9e565b611c8e6120e1565b6001600160a01b038116611cd1576040517f1e4fbdf700000000000000000000000000000000000000000000000000000000815260006004820152602401610ed0565b611cda81612593565b50565b600f546000908152600d602090815260408083206001600160a01b038516845290915281205460ff16610cee565b6000602082018035906001908390611d239086613dd2565b63ffffffff1681526020810191909152604001600020541492915050565b60006001600160e01b031982167f7965db0b000000000000000000000000000000000000000000000000000000001480610cee57507f01ffc9a7000000000000000000000000000000000000000000000000000000006001600160e01b0319831614610cee565b61104f8383836001612944565b600080611dc185612a4b565b915081905083811015611e0a576040517f71c4efed0000000000000000000000000000000000000000000000000000000081526004810182905260248101859052604401610ed0565b935093915050565b63ffffffff811660009081526001602052604081205480610cee576040517ff6ff4fb700000000000000000000000000000000000000000000000000000000815263ffffffff84166004820152602401610ed0565b6000611e79611e768787612a82565b90565b90506000611ea582611e93611e8e8a8a612a9a565b612abd565b611ea060208d018d613dd2565b612af3565b90506028861115611f85576000611ee2611ec560608c0160408d016144d2565b611ed260208d018d613dd2565b84611edd8c8c612b1b565b612b66565b6040517f7cb590120000000000000000000000000000000000000000000000000000000081529091506001600160a01b037f00000000000000000000000000000000000000000000000000000000000000001690637cb5901290611f519086908d9060009087906004016144ef565b600060405180830381600087803b158015611f6b57600080fd5b505af1158015611f7f573d6000803e3d6000fd5b50505050505b6001600160a01b038216887fefed6d3500546b29533b128a29e3a94d70788727f0507505ac12eaf2e578fd9c611fbe60208d018d613dd2565b6040805163ffffffff9092168252602082018690520160405180910390a3505050505050505050565b611cda8133612b98565b6001600160a01b03831661201b57604051634b637e8f60e11b815260006004820152602401610ed0565b6001600160a01b0382166120455760405163ec442f0560e01b815260006004820152602401610ed0565b61104f838383612c06565b6001600160a01b038381166000908152600660209081526040808320938616835292905220546000198114610f7957818110156120d2576040517ffb8f41b20000000000000000000000000000000000000000000000000000000081526001600160a01b03841660048201526024810182905260448101839052606401610ed0565b610f7984848484036000612944565b6000546001600160a01b031633146113de576040517f118cdaa7000000000000000000000000000000000000000000000000000000008152336004820152602401610ed0565b6000806121348484612d49565b90508015610f9e576000848152600e602052604090206121549084612df7565b509392505050565b63ffffffff8216600081815260016020908152604091829020849055815192835282018390527f238399d427b947898edb290f5ff0f9109849b1c3ba196a42e35f00c50a54b98b910160405180910390a15050565b6000306001600160a01b037f00000000000000000000000000000000000000000000000000000000000000001614801561220a57507f000000000000000000000000000000000000000000000000000000000000000046145b1561223457507f000000000000000000000000000000000000000000000000000000000000000090565b610ffe604080517f8b73c3c69bb8fe3d512ecc4cf759cc79239f7b179b0ffacaa9a75d522b39400f60208201527f0000000000000000000000000000000000000000000000000000000000000000918101919091527f000000000000000000000000000000000000000000000000000000000000000060608201524660808201523060a082015260009060c00160405160208183030381529060405280519060200120905090565b6000806122e98484612e0c565b90508015610f9e576000848152600e602052604090206121549084612e93565b6060806000612366856020013561231f86612ea8565b61232c60a0890189614335565b8080601f016020809104026020016040519081016040528093929190818152602001838380828437600092019190915250612ed492505050565b909350905060008161237957600161237c565b60025b905061239c61238e6020880188613dd2565b82610ac860808a018a614335565b6004549093506001600160a01b03161561243d57600480546040517f043a78eb0000000000000000000000000000000000000000000000000000000081526001600160a01b039091169163043a78eb916123fa918891889101614521565b602060405180830381865afa158015612417573d6000803e3d6000fd5b505050506040513d601f19601f8201168201806040525081019061243b9190614546565b505b50509250929050565b60408051808201909152600080825260208201527f00000000000000000000000000000000000000000000000000000000000000006001600160a01b031663ddc28c586040518060a001604052808863ffffffff1681526020016124a989611e12565b8152602001878152602001868152602001851515815250306040518363ffffffff1660e01b81526004016124de929190614563565b6040805180830381865afa1580156124fa573d6000803e3d6000fd5b505050506040513d601f19601f8201168201806040525081019061251e919061460c565b95945050505050565b6001600160a01b0382166125515760405163ec442f0560e01b815260006004820152602401610ed0565b610fb960008383612c06565b6001600160a01b03821661258757604051634b637e8f60e11b815260006004820152602401610ed0565b610fb982600083612c06565b600080546001600160a01b0383811673ffffffffffffffffffffffffffffffffffffffff19831681178455604051919092169283917f8be0079c531659141344cd1fd0a4f28419497f9722a3daafe3b4186f6b6457e09190a35050565b6060610ffe7f0000000000000000000000000000000000000000000000000000000000000000600a612f4e565b6060610ffe7f0000000000000000000000000000000000000000000000000000000000000000600b612f4e565b6000610f9e8383612ff9565b60005b815181101561273757612688828281518110612677576126776142fe565b602002602001015160400151612767565b81818151811061269a5761269a6142fe565b602002602001015160400151600360008484815181106126bc576126bc6142fe565b60200260200101516000015163ffffffff1663ffffffff16815260200190815260200160002060008484815181106126f6576126f66142fe565b60200260200101516020015161ffff1661ffff16815260200190815260200160002090816127249190614676565b508061272f81614419565b915050612659565b507fbe4864a8e820971c0247f5992e2da559595f7bf076a21cb5928d443d2a13b674816040516113c19190614736565b600281015161ffff8116600314610fb95781604051639a6d49cd60e01b8152600401610ed091906137dc565b6000806127a1858585611db5565b90925090506127b0868361255d565b94509492505050565b6127c161371a565b60006127d08460000151613023565b6020850151909150156127ea576127ea8460200151613064565b7f00000000000000000000000000000000000000000000000000000000000000006001600160a01b0316632637a450826040518060a001604052808b63ffffffff16815260200161283a8c611e12565b81526020018a815260200189815260200160008960200151111515815250866040518463ffffffff1660e01b8152600401612876929190614563565b60806040518083038185885af1158015612894573d6000803e3d6000fd5b50505050506040513d601f19601f820116820180604052508101906128b991906147bf565b979650505050505050565b6000610cee825490565b6000610cee6128db6121b1565b836040517f19010000000000000000000000000000000000000000000000000000000000008152600281019290925260228201526042902090565b6000806000806129288888888861315f565b925092509250612938828261322e565b50909695505050505050565b6001600160a01b038416612987576040517fe602df0500000000000000000000000000000000000000000000000000000000815260006004820152602401610ed0565b6001600160a01b0383166129ca576040517f94280d6200000000000000000000000000000000000000000000000000000000815260006004820152602401610ed0565b6001600160a01b0380851660009081526006602090815260408083209387168352929052208290558015610f7957826001600160a01b0316846001600160a01b03167f8c5be1e5ebec7d5bd14f71427d1e84f3dd0314c0f7b2291e5b200ac8c7c3b92584604051612a3d91815260200190565b60405180910390a350505050565b60007f0000000000000000000000000000000000000000000000000000000000000000612a788184614809565b610cee919061482b565b6000612a916020828486614298565b610f9e91614842565b6000612aaa602860208486614298565b612ab391614860565b60c01c9392505050565b6000610cee7f000000000000000000000000000000000000000000000000000000000000000067ffffffffffffffff841661482b565b60006001600160a01b038416612b095761dead93505b612b138484612527565b509092915050565b6060612b2a8260288186614298565b8080601f016020809104026020016040519081016040528093929190818152602001838380828437600092019190915250929695505050505050565b606084848484604051602001612b7f9493929190614890565b6040516020818303038152906040529050949350505050565b6000828152600d602090815260408083206001600160a01b038516845290915290205460ff16610fb9576040517fe2517d3f0000000000000000000000000000000000000000000000000000000081526001600160a01b038216600482015260248101839052604401610ed0565b6001600160a01b038316612c31578060076000828254612c2691906140b7565b90915550612cbc9050565b6001600160a01b03831660009081526005602052604090205481811015612c9d576040517fe450d38c0000000000000000000000000000000000000000000000000000000081526001600160a01b03851660048201526024810182905260448101839052606401610ed0565b6001600160a01b03841660009081526005602052604090209082900390555b6001600160a01b038216612cd857600780548290039055612cf7565b6001600160a01b03821660009081526005602052604090208054820190555b816001600160a01b0316836001600160a01b03167fddf252ad1be2c89b69c2b068fc378daa952ba7f163c4a11628f55a4df523b3ef83604051612d3c91815260200190565b60405180910390a3505050565b6000828152600d602090815260408083206001600160a01b038516845290915281205460ff16612def576000838152600d602090815260408083206001600160a01b03861684529091529020805460ff19166001179055612da73390565b6001600160a01b0316826001600160a01b0316847f2f8788117e7eff1d82e926ec794901d17c78024a50270940304540a733656f0d60405160405180910390a4506001610cee565b506000610cee565b6000610f9e836001600160a01b038416613332565b6000828152600d602090815260408083206001600160a01b038516845290915281205460ff1615612def576000838152600d602090815260408083206001600160a01b0386168085529252808320805460ff1916905551339286917ff6391f5c32d9c69d2a47ea670b442974b53935d1edc7fd64eb21e047a839171b9190a4506001610cee565b6000610f9e836001600160a01b038416613379565b6000610cee7f000000000000000000000000000000000000000000000000000000000000000083614809565b8051606090151580612f1d578484604051602001612f0992919091825260c01b6001600160c01b031916602082015260280190565b604051602081830303815290604052612f44565b84843385604051602001612f3494939291906148de565b6040516020818303038152906040525b9150935093915050565b606060ff8314612f6857612f618361346c565b9050610cee565b818054612f7490613fd0565b80601f0160208091040260200160405190810160405280929190818152602001828054612fa090613fd0565b8015612fed5780601f10612fc257610100808354040283529160200191612fed565b820191906000526020600020905b815481529060010190602001808311612fd057829003601f168201915b50505050509050610cee565b6000826000018281548110613010576130106142fe565b9060005260206000200154905092915050565b6000813414613060576040517f9f704120000000000000000000000000000000000000000000000000000000008152346004820152602401610ed0565b5090565b60007f00000000000000000000000000000000000000000000000000000000000000006001600160a01b031663e4fe1d946040518163ffffffff1660e01b8152600401602060405180830381865afa1580156130c4573d6000803e3d6000fd5b505050506040513d601f19601f820116820180604052508101906130e8919061491f565b90506001600160a01b03811661312a576040517f5373352a00000000000000000000000000000000000000000000000000000000815260040160405180910390fd5b610fb96001600160a01b038216337f0000000000000000000000000000000000000000000000000000000000000000856134ab565b600080807f7fffffffffffffffffffffffffffffff5d576e7357a4501ddfe92f46681b20a084111561319a5750600091506003905082613224565b604080516000808252602082018084528a905260ff891692820192909252606081018790526080810186905260019060a0016020604051602081039080840390855afa1580156131ee573d6000803e3d6000fd5b5050604051601f1901519150506001600160a01b03811661321a57506000925060019150829050613224565b9250600091508190505b9450945094915050565b60008260038111156132425761324261493c565b0361324b575050565b600182600381111561325f5761325f61493c565b03613296576040517ff645eedf00000000000000000000000000000000000000000000000000000000815260040160405180910390fd5b60028260038111156132aa576132aa61493c565b036132e4576040517ffce698f700000000000000000000000000000000000000000000000000000000815260048101829052602401610ed0565b60038260038111156132f8576132f861493c565b03610fb9576040517fd78bce0c00000000000000000000000000000000000000000000000000000000815260048101829052602401610ed0565b6000818152600183016020526040812054612def57508154600181810184556000848152602080822090930184905584548482528286019093526040902091909155610cee565b6000818152600183016020526040812054801561346257600061339d6001836140ca565b85549091506000906133b1906001906140ca565b90508082146134165760008660000182815481106133d1576133d16142fe565b90600052602060002001549050808760000184815481106133f4576133f46142fe565b6000918252602080832090910192909255918252600188019052604090208390555b855486908061342757613427614952565b600190038181906000526020600020016000905590558560010160008681526020019081526020016000206000905560019350505050610cee565b6000915050610cee565b6060600061347983613533565b604080516020808252818301909252919250600091906020820181803683375050509182525060208101929092525090565b604080516001600160a01b0385811660248301528416604482015260648082018490528251808303909101815260849091019091526020810180517bffffffffffffffffffffffffffffffffffffffffffffffffffffffff167f23b872dd00000000000000000000000000000000000000000000000000000000179052610f79908590613574565b600060ff8216601f811115610cee576040517fb3512b0c00000000000000000000000000000000000000000000000000000000815260040160405180910390fd5b60006135896001600160a01b038416836135f0565b905080516000141580156135ae5750808060200190518101906135ac9190614546565b155b1561104f576040517f5274afe70000000000000000000000000000000000000000000000000000000081526001600160a01b0384166004820152602401610ed0565b6060610f9e8383600084600080856001600160a01b031684866040516136169190614968565b60006040518083038185875af1925050503d8060008114613653576040519150601f19603f3d011682016040523d82523d6000602084013e613658565b606091505b50915091506110b186838360608261367857613673826136d8565b610f9e565b815115801561368f57506001600160a01b0384163b155b156136d1576040517f9996b3150000000000000000000000000000000000000000000000000000000081526001600160a01b0385166004820152602401610ed0565b5080610f9e565b8051156136e85780518082602001fd5b6040517f1425ea4200000000000000000000000000000000000000000000000000000000815260040160405180910390fd5b604051806060016040528060008019168152602001600067ffffffffffffffff16815260200161375d604051806040016040528060008152602001600081525090565b905290565b60006020828403121561377457600080fd5b81356001600160e01b031981168114610f9e57600080fd5b60005b838110156137a757818101518382015260200161378f565b50506000910152565b600081518084526137c881602086016020860161378c565b601f01601f19169290920160200192915050565b602081526000610f9e60208301846137b0565b6001600160a01b0381168114611cda57600080fd5b6000806040838503121561381757600080fd5b8235613822816137ef565b946020939093013593505050565b600060e0828403121561384257600080fd5b50919050565b60006020828403121561385a57600080fd5b813567ffffffffffffffff81111561387157600080fd5b61140b84828501613830565b8351815260208085015190820152600060a08201604060a08185015281865180845260c08601915060c08160051b8701019350602080890160005b838110156138f75788870360bf190185528151805188528301518388018790526138e4878901826137b0565b97505093820193908201906001016138b8565b5050875160608801525050506020850151608085015250905061140b565b60006060828403121561384257600080fd5b60008083601f84011261393957600080fd5b50813567ffffffffffffffff81111561395157600080fd5b60208301915083602082850101111561396957600080fd5b9250929050565b600080600080600080600060e0888a03121561398b57600080fd5b6139958989613915565b965060608801359550608088013567ffffffffffffffff808211156139b957600080fd5b6139c58b838c01613927565b909750955060a08a013591506139da826137ef565b90935060c089013590808211156139f057600080fd5b506139fd8a828b01613927565b989b979a50959850939692959293505050565b600080600060608486031215613a2557600080fd5b8335613a30816137ef565b92506020840135613a40816137ef565b929592945050506040919091013590565b600060208284031215613a6357600080fd5b5035919050565b600060208284031215613a7c57600080fd5b8135610f9e816137ef565b60008060408385031215613a9a57600080fd5b823591506020830135613aac816137ef565b809150509250929050565b803563ffffffff81168114613acb57600080fd5b919050565b60008060408385031215613ae357600080fd5b61382283613ab7565b8015158114611cda57600080fd5b60008060408385031215613b0d57600080fd5b823567ffffffffffffffff811115613b2457600080fd5b613b3085828601613830565b9250506020830135613aac81613aec565b815181526020808301519082015260408101610cee565b803561ffff81168114613acb57600080fd5b60008060408385031215613b7d57600080fd5b613b8683613ab7565b9150613b9460208401613b58565b90509250929050565b600080600080600060808688031215613bb557600080fd5b8535613bc0816137ef565b94506020860135613bd0816137ef565b935060408601359250606086013567ffffffffffffffff811115613bf357600080fd5b613bff88828901613927565b969995985093965092949392505050565b60008060008060a08587031215613c2657600080fd5b613c308686613915565b9350606085013567ffffffffffffffff811115613c4c57600080fd5b613c5887828801613927565b9094509250506080850135613c6c816137ef565b939692955090935050565b7fff00000000000000000000000000000000000000000000000000000000000000881681526000602060e081840152613cb360e084018a6137b0565b8381036040850152613cc5818a6137b0565b606085018990526001600160a01b038816608086015260a0850187905284810360c0860152855180825283870192509083019060005b81811015613d1757835183529284019291840191600101613cfb565b50909c9b505050505050505050505050565b60008060408385031215613d3c57600080fd5b50508035926020909101359150565b60008083601f840112613d5d57600080fd5b50813567ffffffffffffffff811115613d7557600080fd5b6020830191508360208260051b850101111561396957600080fd5b60008060208385031215613da357600080fd5b823567ffffffffffffffff811115613dba57600080fd5b613dc685828601613d4b565b90969095509350505050565b600060208284031215613de457600080fd5b610f9e82613ab7565b60008060008060608587031215613e0357600080fd5b613e0c85613ab7565b9350613e1a60208601613b58565b9250604085013567ffffffffffffffff811115613e3657600080fd5b613e4287828801613927565b95989497509550505050565b60008060008385036080811215613e6457600080fd5b843567ffffffffffffffff811115613e7b57600080fd5b613e8787828801613830565b9450506040601f1982011215613e9c57600080fd5b506020840191506060840135613eb1816137ef565b809150509250925092565b600060c0820190508351825267ffffffffffffffff60208501511660208301526040840151613ef8604084018280518252602090810151910152565b5082516080830152602083015160a0830152610f9e565b600080600080600080600060e0888a031215613f2a57600080fd5b8735613f35816137ef565b96506020880135613f45816137ef565b95506040880135945060608801359350608088013560ff81168114613f6957600080fd5b9699959850939692959460a0840135945060c09093013592915050565b60008060408385031215613f9957600080fd5b8235613fa4816137ef565b91506020830135613aac816137ef565b600060608284031215613fc657600080fd5b610f9e8383613915565b600181811c90821680613fe457607f821691505b60208210810361384257634e487b7160e01b600052602260045260246000fd5b634e487b7160e01b600052604160045260246000fd5b81835281816020850137506000828201602090810191909152601f909101601f19169091010190565b60006001600160a01b03808916835280881660208401525085604083015284606083015260a0608083015261407c60a08301848661401a565b98975050505050505050565b60006020828403121561409a57600080fd5b5051919050565b634e487b7160e01b600052601160045260246000fd5b80820180821115610cee57610cee6140a1565b81810381811115610cee57610cee6140a1565b6040516060810167ffffffffffffffff8111828210171561410057614100614004565b60405290565b6040805190810167ffffffffffffffff8111828210171561410057614100614004565b604051601f8201601f1916810167ffffffffffffffff8111828210171561415257614152614004565b604052919050565b600067ffffffffffffffff82111561417457614174614004565b50601f01601f191660200190565b600067ffffffffffffffff8084111561419d5761419d614004565b8360051b60206141ae818301614129565b8681529185019181810190368411156141c657600080fd5b865b8481101561428c578035868111156141e05760008081fd5b880160603682900312156141f45760008081fd5b6141fc6140dd565b61420582613ab7565b8152614212868301613b58565b868201526040808301358981111561422a5760008081fd5b929092019136601f84011261423f5760008081fd5b823561425261424d8261415a565b614129565b81815236898387010111156142675760008081fd5b818986018a8301376000918101890191909152908201528452509183019183016141c8565b50979650505050505050565b600080858511156142a857600080fd5b838611156142b557600080fd5b5050820193919092039150565b600084516142d481846020890161378c565b8201838582376000930192835250909392505050565b60208152600061140b60208301848661401a565b634e487b7160e01b600052603260045260246000fd5b6000823561013e1983360301811261432b57600080fd5b9190910192915050565b6000808335601e1984360301811261434c57600080fd5b83018035915067ffffffffffffffff82111561436757600080fd5b60200191503681900382131561396957600080fd5b67ffffffffffffffff81168114611cda57600080fd5b63ffffffff6143a089613ab7565b16815260208801356020820152600060408901356143bd8161437c565b67ffffffffffffffff811660408401525087606083015260e060808301526143e960e08301878961401a565b6001600160a01b03861660a084015282810360c084015261440b81858761401a565b9a9950505050505050505050565b60006001820161442b5761442b6140a1565b5060010190565b60006020828403121561444457600080fd5b815167ffffffffffffffff81111561445b57600080fd5b8201601f8101841361446c57600080fd5b805161447a61424d8261415a565b81815285602083850101111561448f57600080fd5b61251e82602083016020860161378c565b6000604082840312156144b257600080fd5b6144ba614106565b82358152602083013560208201528091505092915050565b6000602082840312156144e457600080fd5b8135610f9e8161437c565b6001600160a01b038516815283602082015261ffff831660408201526080606082015260006110b160808301846137b0565b60408152600061453460408301856137b0565b828103602084015261251e81856137b0565b60006020828403121561455857600080fd5b8151610f9e81613aec565b6040815263ffffffff8351166040820152602083015160608201526000604084015160a0608084015261459960e08401826137b0565b90506060850151603f198483030160a08501526145b682826137b0565b60809690960151151560c08501525050506001600160a01b039190911660209091015290565b6000604082840312156145ee57600080fd5b6145f6614106565b9050815181526020820151602082015292915050565b60006040828403121561461e57600080fd5b610f9e83836145dc565b601f82111561104f57600081815260208120601f850160051c8101602086101561464f5750805b601f850160051c820191505b8181101561466e5782815560010161465b565b505050505050565b815167ffffffffffffffff81111561469057614690614004565b6146a48161469e8454613fd0565b84614628565b602080601f8311600181146146d957600084156146c15750858301515b600019600386901b1c1916600185901b17855561466e565b600085815260208120601f198616915b82811015614708578886015182559484019460019091019084016146e9565b50858210156147265787850151600019600388901b60f8161c191681555b5050505050600190811b01905550565b60006020808301818452808551808352604092508286019150828160051b87010184880160005b838110156147b157888303603f190185528151805163ffffffff1684528781015161ffff1688850152860151606087850181905261479d818601836137b0565b96890196945050509086019060010161475d565b509098975050505050505050565b6000608082840312156147d157600080fd5b6147d96140dd565b8251815260208301516147eb8161437c565b60208201526147fd84604085016145dc565b60408201529392505050565b60008261482657634e487b7160e01b600052601260045260246000fd5b500490565b8082028115828204841417610cee57610cee6140a1565b80356020831015610cee57600019602084900360031b1b1692915050565b6001600160c01b031981358181169160088510156148885780818660080360031b1b83161692505b505092915050565b6001600160c01b03198560c01b1681526001600160e01b03198460e01b16600882015282600c820152600082516148ce81602c85016020870161378c565b91909101602c0195945050505050565b8481526001600160c01b03198460c01b1660208201528260288201526000825161490f81604885016020870161378c565b9190910160480195945050505050565b60006020828403121561493157600080fd5b8151610f9e816137ef565b634e487b7160e01b600052602160045260246000fd5b634e487b7160e01b600052603160045260246000fd5b6000825161432b81846020870161378c56fea2646970667358221220a4b5ea53260fb49d1b17a5e5257e11e90c0a12e91fca5ed49b0429eeeb0a480764736f6c63430008140033",
  "linkReferences": {},
  "deployedLinkReferences": {}
}